{
  "_format": "hh-sol-artifact-1",
  "contractName": "ApexFlashLoan",
  "sourceName": "core-logic/contracts/ApexFlashLoan.sol",
  "abi": [
    {
      "inputs": [
        {
          "internalType": "contract IPoolAddressesProvider",
          "name": "provider",
          "type": "address"
        }
      ],
      "stateMutability": "nonpayable",
      "type": "constructor"
    },
    {
      "anonymous": false,
      "inputs": [
        {
          "indexed": true,
          "internalType": "address",
          "name": "token",
          "type": "address"
        },
        {
          "indexed": false,
          "internalType": "uint256",
          "name": "amount",
          "type": "uint256"
        },
        {
          "indexed": false,
          "internalType": "uint256",
          "name": "premium",
          "type": "uint256"
        }
      ],
      "name": "FlashLoanExecuted",
      "type": "event"
    },
    {
      "anonymous": false,
      "inputs": [
        {
          "indexed": true,
          "internalType": "address",
          "name": "token",
          "type": "address"
        },
        {
          "indexed": false,
          "internalType": "uint256",
          "name": "profit",
          "type": "uint256"
        }
      ],
      "name": "ProfitSecured",
      "type": "event"
    },
    {
      "anonymous": false,
      "inputs": [
        {
          "indexed": true,
          "internalType": "address",
          "name": "router",
          "type": "address"
        },
        {
          "indexed": false,
          "internalType": "address",
          "name": "tokenIn",
          "type": "address"
        },
        {
          "indexed": false,
          "internalType": "uint256",
          "name": "amountOut",
          "type": "uint256"
        }
      ],
      "name": "TradeExecuted",
      "type": "event"
    },
    {
      "inputs": [],
      "name": "ADDRESSES_PROVIDER",
      "outputs": [
        {
          "internalType": "contract IPoolAddressesProvider",
          "name": "",
          "type": "address"
        }
      ],
      "stateMutability": "view",
      "type": "function"
    },
    {
      "inputs": [],
      "name": "POOL",
      "outputs": [
        {
          "internalType": "contract IPool",
          "name": "",
          "type": "address"
        }
      ],
      "stateMutability": "view",
      "type": "function"
    },
    {
      "inputs": [
        {
          "internalType": "address",
          "name": "token",
          "type": "address"
        },
        {
          "internalType": "uint256",
          "name": "amount",
          "type": "uint256"
        },
        {
          "internalType": "bytes",
          "name": "data",
          "type": "bytes"
        }
      ],
      "name": "executeArbitrage",
      "outputs": [],
      "stateMutability": "nonpayable",
      "type": "function"
    },
    {
      "inputs": [
        {
          "internalType": "address",
          "name": "token",
          "type": "address"
        },
        {
          "internalType": "uint256",
          "name": "amount",
          "type": "uint256"
        },
        {
          "internalType": "uint256",
          "name": "premium",
          "type": "uint256"
        },
        {
          "internalType": "address",
          "name": "initiator",
          "type": "address"
        },
        {
          "internalType": "bytes",
          "name": "params",
          "type": "bytes"
        }
      ],
      "name": "executeOperation",
      "outputs": [
        {
          "internalType": "bool",
          "name": "",
          "type": "bool"
        }
      ],
      "stateMutability": "nonpayable",
      "type": "function"
    },
    {
      "inputs": [],
      "name": "owner",
      "outputs": [
        {
          "internalType": "address",
          "name": "",
          "type": "address"
        }
      ],
      "stateMutability": "view",
      "type": "function"
    },
    {
      "inputs": [
        {
          "internalType": "address",
          "name": "token",
          "type": "address"
        }
      ],
      "name": "rescueFunds",
      "outputs": [],
      "stateMutability": "nonpayable",
      "type": "function"
    }
  ],
  "bytecode": "0x60c06040523480156200001157600080fd5b5060405162001d9538038062001d958339818101604052810190620000379190620001d7565b808073ffffffffffffffffffffffffffffffffffffffff1660808173ffffffffffffffffffffffffffffffffffffffff16815250508073ffffffffffffffffffffffffffffffffffffffff1663026b1d5f6040518163ffffffff1660e01b8152600401602060405180830381865afa158015620000b8573d6000803e3d6000fd5b505050506040513d601f19601f82011682018060405250810190620000de91906200023a565b73ffffffffffffffffffffffffffffffffffffffff1660a08173ffffffffffffffffffffffffffffffffffffffff168152505050336000806101000a81548173ffffffffffffffffffffffffffffffffffffffff021916908373ffffffffffffffffffffffffffffffffffffffff160217905550506200026c565b600080fd5b600073ffffffffffffffffffffffffffffffffffffffff82169050919050565b60006200018b826200015e565b9050919050565b60006200019f826200017e565b9050919050565b620001b18162000192565b8114620001bd57600080fd5b50565b600081519050620001d181620001a6565b92915050565b600060208284031215620001f057620001ef62000159565b5b60006200020084828501620001c0565b91505092915050565b62000214816200017e565b81146200022057600080fd5b50565b600081519050620002348162000209565b92915050565b60006020828403121562000253576200025262000159565b5b6000620002638482850162000223565b91505092915050565b60805160a051611aee620002a760003960008181610151015281816102d30152818161046201526105140152600061012b0152611aee6000f3fe608060405234801561001057600080fd5b50600436106100625760003560e01c80630542975c146100675780631b11d0ff146100855780637535d246146100b55780637c1d9539146100d35780638da5cb5b146100ef578063e53b20171461010d575b600080fd5b61006f610129565b60405161007c9190610da6565b60405180910390f35b61009f600480360381019061009a9190610eae565b61014d565b6040516100ac9190610f63565b60405180910390f35b6100bd610460565b6040516100ca9190610f9f565b60405180910390f35b6100ed60048036038101906100e89190610fba565b610484565b005b6100f76105ae565b604051610104919061103d565b60405180910390f35b61012760048036038101906101229190611058565b6105d2565b005b7f000000000000000000000000000000000000000000000000000000000000000081565b60007f000000000000000000000000000000000000000000000000000000000000000073ffffffffffffffffffffffffffffffffffffffff163373ffffffffffffffffffffffffffffffffffffffff16146101dd576040517f08c379a00000000000000000000000000000000000000000000000000000000081526004016101d4906110e2565b60405180910390fd5b3073ffffffffffffffffffffffffffffffffffffffff168473ffffffffffffffffffffffffffffffffffffffff161461024b576040517f08c379a00000000000000000000000000000000000000000000000000000000081526004016102429061114e565b60405180910390fd5b6000838381019061025c91906112b3565b905060006102698261072d565b905060008789019050808210156102b5576040517f08c379a00000000000000000000000000000000000000000000000000000000081526004016102ac90611352565b60405180910390fd5b8973ffffffffffffffffffffffffffffffffffffffff1663095ea7b37f0000000000000000000000000000000000000000000000000000000000000000836040518363ffffffff1660e01b8152600401610310929190611381565b6020604051808303816000875af115801561032f573d6000803e3d6000fd5b505050506040513d601f19601f8201168201806040525081019061035391906113d6565b506000818303905060008111156103fe576103af60008054906101000a900473ffffffffffffffffffffffffffffffffffffffff16828d73ffffffffffffffffffffffffffffffffffffffff1661077e9092919063ffffffff16565b8a73ffffffffffffffffffffffffffffffffffffffff167f354794e3cec91c37056f243c191509319a0266fcf493d9647cb81125d08a7d95826040516103f59190611403565b60405180910390a25b8a73ffffffffffffffffffffffffffffffffffffffff167f61268d74931c41c9775dffb6169a5208aab1d09cb2eb6aabe8b97162801e5dfa8b8b60405161044692919061141e565b60405180910390a260019450505050509695505050505050565b7f000000000000000000000000000000000000000000000000000000000000000081565b60008054906101000a900473ffffffffffffffffffffffffffffffffffffffff1673ffffffffffffffffffffffffffffffffffffffff163373ffffffffffffffffffffffffffffffffffffffff1614610512576040517f08c379a000000000000000000000000000000000000000000000000000000000815260040161050990611493565b60405180910390fd5b7f000000000000000000000000000000000000000000000000000000000000000073ffffffffffffffffffffffffffffffffffffffff166342b0b77c308686868660006040518763ffffffff1660e01b815260040161057696959493929190611549565b600060405180830381600087803b15801561059057600080fd5b505af11580156105a4573d6000803e3d6000fd5b5050505050505050565b60008054906101000a900473ffffffffffffffffffffffffffffffffffffffff1681565b60008054906101000a900473ffffffffffffffffffffffffffffffffffffffff1673ffffffffffffffffffffffffffffffffffffffff163373ffffffffffffffffffffffffffffffffffffffff1614610660576040517f08c379a000000000000000000000000000000000000000000000000000000000815260040161065790611493565b60405180910390fd5b60008173ffffffffffffffffffffffffffffffffffffffff166370a08231306040518263ffffffff1660e01b815260040161069b919061103d565b602060405180830381865afa1580156106b8573d6000803e3d6000fd5b505050506040513d601f19601f820116820180604052508101906106dc91906115ba565b905061072960008054906101000a900473ffffffffffffffffffffffffffffffffffffffff16828473ffffffffffffffffffffffffffffffffffffffff1661077e9092919063ffffffff16565b5050565b60008061075183600001518460400151856060015186608001518760a00151610804565b90506000610772846020015185606001518660400151858860c00151610804565b90508092505050919050565b6107ff8363a9059cbb60e01b848460405160240161079d929190611381565b604051602081830303815290604052907bffffffffffffffffffffffffffffffffffffffffffffffffffffffff19166020820180517bffffffffffffffffffffffffffffffffffffffffffffffffffffffff8381831617835250505050610a92565b505050565b60008473ffffffffffffffffffffffffffffffffffffffff1663095ea7b387856040518363ffffffff1660e01b8152600401610841929190611381565b6020604051808303816000875af1158015610860573d6000803e3d6000fd5b505050506040513d601f19601f8201168201806040525081019061088491906113d6565b506000600267ffffffffffffffff8111156108a2576108a1611184565b5b6040519080825280602002602001820160405280156108d05781602001602082028036833780820191505090505b50905085816000815181106108e8576108e76115e7565b5b602002602001019073ffffffffffffffffffffffffffffffffffffffff16908173ffffffffffffffffffffffffffffffffffffffff16815250508481600181518110610937576109366115e7565b5b602002602001019073ffffffffffffffffffffffffffffffffffffffff16908173ffffffffffffffffffffffffffffffffffffffff168152505060008773ffffffffffffffffffffffffffffffffffffffff166338ed173986868530426040518663ffffffff1660e01b81526004016109b49594939291906116d4565b6000604051808303816000875af11580156109d3573d6000803e3d6000fd5b505050506040513d6000823e3d601f19601f820116820180604052508101906109fc91906117f1565b90508773ffffffffffffffffffffffffffffffffffffffff167fad559ea7e44788d51a5db6d67fc2c8a295a8f35a08b02e2b427160b7c7dbfe788883600181518110610a4b57610a4a6115e7565b5b6020026020010151604051610a61929190611381565b60405180910390a280600181518110610a7d57610a7c6115e7565b5b60200260200101519250505095945050505050565b6000610af4826040518060400160405280602081526020017f5361666545524332303a206c6f772d6c6576656c2063616c6c206661696c65648152508573ffffffffffffffffffffffffffffffffffffffff16610b5a9092919063ffffffff16565b9050600081511480610b16575080806020019051810190610b1591906113d6565b5b610b55576040517f08c379a0000000000000000000000000000000000000000000000000000000008152600401610b4c906118ac565b60405180910390fd5b505050565b6060610b698484600085610b72565b90509392505050565b606082471015610bb7576040517f08c379a0000000000000000000000000000000000000000000000000000000008152600401610bae9061193e565b60405180910390fd5b6000808673ffffffffffffffffffffffffffffffffffffffff168587604051610be091906119cf565b60006040518083038185875af1925050503d8060008114610c1d576040519150601f19603f3d011682016040523d82523d6000602084013e610c22565b606091505b5091509150610c3387838387610c3f565b92505050949350505050565b60608315610ca1576000835103610c9957610c5985610cb4565b610c98576040517f08c379a0000000000000000000000000000000000000000000000000000000008152600401610c8f90611a32565b60405180910390fd5b5b829050610cac565b610cab8383610cd7565b5b949350505050565b6000808273ffffffffffffffffffffffffffffffffffffffff163b119050919050565b600082511115610cea5781518083602001fd5b806040517f08c379a0000000000000000000000000000000000000000000000000000000008152600401610d1e9190611a96565b60405180910390fd5b600073ffffffffffffffffffffffffffffffffffffffff82169050919050565b6000819050919050565b6000610d6c610d67610d6284610d27565b610d47565b610d27565b9050919050565b6000610d7e82610d51565b9050919050565b6000610d9082610d73565b9050919050565b610da081610d85565b82525050565b6000602082019050610dbb6000830184610d97565b92915050565b6000604051905090565b600080fd5b600080fd5b6000610de082610d27565b9050919050565b610df081610dd5565b8114610dfb57600080fd5b50565b600081359050610e0d81610de7565b92915050565b6000819050919050565b610e2681610e13565b8114610e3157600080fd5b50565b600081359050610e4381610e1d565b92915050565b600080fd5b600080fd5b600080fd5b60008083601f840112610e6e57610e6d610e49565b5b8235905067ffffffffffffffff811115610e8b57610e8a610e4e565b5b602083019150836001820283011115610ea757610ea6610e53565b5b9250929050565b60008060008060008060a08789031215610ecb57610eca610dcb565b5b6000610ed989828a01610dfe565b9650506020610eea89828a01610e34565b9550506040610efb89828a01610e34565b9450506060610f0c89828a01610dfe565b935050608087013567ffffffffffffffff811115610f2d57610f2c610dd0565b5b610f3989828a01610e58565b92509250509295509295509295565b60008115159050919050565b610f5d81610f48565b82525050565b6000602082019050610f786000830184610f54565b92915050565b6000610f8982610d73565b9050919050565b610f9981610f7e565b82525050565b6000602082019050610fb46000830184610f90565b92915050565b60008060008060608587031215610fd457610fd3610dcb565b5b6000610fe287828801610dfe565b9450506020610ff387828801610e34565b935050604085013567ffffffffffffffff81111561101457611013610dd0565b5b61102087828801610e58565b925092505092959194509250565b61103781610dd5565b82525050565b6000602082019050611052600083018461102e565b92915050565b60006020828403121561106e5761106d610dcb565b5b600061107c84828501610dfe565b91505092915050565b600082825260208201905092915050565b7f417065783a20496e74727564657220416c657274000000000000000000000000600082015250565b60006110cc601483611085565b91506110d782611096565b602082019050919050565b600060208201905081810360008301526110fb816110bf565b9050919050565b7f417065783a20526f67756520496e69746961746f720000000000000000000000600082015250565b6000611138601583611085565b915061114382611102565b602082019050919050565b600060208201905081810360008301526111678161112b565b9050919050565b600080fd5b6000601f19601f8301169050919050565b7f4e487b7100000000000000000000000000000000000000000000000000000000600052604160045260246000fd5b6111bc82611173565b810181811067ffffffffffffffff821117156111db576111da611184565b5b80604052505050565b60006111ee610dc1565b90506111fa82826111b3565b919050565b600060e082840312156112155761121461116e565b5b61121f60e06111e4565b9050600061122f84828501610dfe565b600083015250602061124384828501610dfe565b602083015250604061125784828501610dfe565b604083015250606061126b84828501610dfe565b606083015250608061127f84828501610e34565b60808301525060a061129384828501610e34565b60a08301525060c06112a784828501610e34565b60c08301525092915050565b600060e082840312156112c9576112c8610dcb565b5b60006112d7848285016111ff565b91505092915050565b7f417065783a20547261646520556e70726f66697461626c65202d20524556455260008201527f54494e4700000000000000000000000000000000000000000000000000000000602082015250565b600061133c602483611085565b9150611347826112e0565b604082019050919050565b6000602082019050818103600083015261136b8161132f565b9050919050565b61137b81610e13565b82525050565b6000604082019050611396600083018561102e565b6113a36020830184611372565b9392505050565b6113b381610f48565b81146113be57600080fd5b50565b6000815190506113d0816113aa565b92915050565b6000602082840312156113ec576113eb610dcb565b5b60006113fa848285016113c1565b91505092915050565b60006020820190506114186000830184611372565b92915050565b60006040820190506114336000830185611372565b6114406020830184611372565b9392505050565b7f417065783a204e6f7420436f6d6d616e64000000000000000000000000000000600082015250565b600061147d601183611085565b915061148882611447565b602082019050919050565b600060208201905081810360008301526114ac81611470565b9050919050565b600082825260208201905092915050565b82818337600083830152505050565b60006114df83856114b3565b93506114ec8385846114c4565b6114f583611173565b840190509392505050565b6000819050919050565b600061ffff82169050919050565b600061153361152e61152984611500565b610d47565b61150a565b9050919050565b61154381611518565b82525050565b600060a08201905061155e600083018961102e565b61156b602083018861102e565b6115786040830187611372565b818103606083015261158b8185876114d3565b905061159a608083018461153a565b979650505050505050565b6000815190506115b481610e1d565b92915050565b6000602082840312156115d0576115cf610dcb565b5b60006115de848285016115a5565b91505092915050565b7f4e487b7100000000000000000000000000000000000000000000000000000000600052603260045260246000fd5b600081519050919050565b600082825260208201905092915050565b6000819050602082019050919050565b61164b81610dd5565b82525050565b600061165d8383611642565b60208301905092915050565b6000602082019050919050565b600061168182611616565b61168b8185611621565b935061169683611632565b8060005b838110156116c75781516116ae8882611651565b97506116b983611669565b92505060018101905061169a565b5085935050505092915050565b600060a0820190506116e96000830188611372565b6116f66020830187611372565b81810360408301526117088186611676565b9050611717606083018561102e565b6117246080830184611372565b9695505050505050565b600067ffffffffffffffff82111561174957611748611184565b5b602082029050602081019050919050565b600061176d6117688461172e565b6111e4565b905080838252602082019050602084028301858111156117905761178f610e53565b5b835b818110156117b957806117a588826115a5565b845260208401935050602081019050611792565b5050509392505050565b600082601f8301126117d8576117d7610e49565b5b81516117e884826020860161175a565b91505092915050565b60006020828403121561180757611806610dcb565b5b600082015167ffffffffffffffff81111561182557611824610dd0565b5b611831848285016117c3565b91505092915050565b7f5361666545524332303a204552433230206f7065726174696f6e20646964206e60008201527f6f74207375636365656400000000000000000000000000000000000000000000602082015250565b6000611896602a83611085565b91506118a18261183a565b604082019050919050565b600060208201905081810360008301526118c581611889565b9050919050565b7f416464726573733a20696e73756666696369656e742062616c616e636520666f60008201527f722063616c6c0000000000000000000000000000000000000000000000000000602082015250565b6000611928602683611085565b9150611933826118cc565b604082019050919050565b600060208201905081810360008301526119578161191b565b9050919050565b600081519050919050565b600081905092915050565b60005b83811015611992578082015181840152602081019050611977565b60008484015250505050565b60006119a98261195e565b6119b38185611969565b93506119c3818560208601611974565b80840191505092915050565b60006119db828461199e565b915081905092915050565b7f416464726573733a2063616c6c20746f206e6f6e2d636f6e7472616374000000600082015250565b6000611a1c601d83611085565b9150611a27826119e6565b602082019050919050565b60006020820190508181036000830152611a4b81611a0f565b9050919050565b600081519050919050565b6000611a6882611a52565b611a728185611085565b9350611a82818560208601611974565b611a8b81611173565b840191505092915050565b60006020820190508181036000830152611ab08184611a5d565b90509291505056fea2646970667358221220ae4a68fb22efc5d67f4e7b9cdad98801b84577cedc85a339ec0e1dfea103407e64736f6c63430008130033",
  "linkReferences": {},
  "deployedLinkReferences": {}
}