{
  "_format": "hh-sol-artifact-1",
  "contractName": "MEVShield",
  "sourceName": "core-logic/contracts/MEVShield.sol",
  "abi": [
    {
      "anonymous": false,
      "inputs": [
        {
          "indexed": true,
          "internalType": "address",
          "name": "recipient",
          "type": "address"
        },
        {
          "indexed": false,
          "internalType": "uint256",
          "name": "amount",
          "type": "uint256"
        },
        {
          "indexed": true,
          "internalType": "bytes32",
          "name": "transactionHash",
          "type": "bytes32"
        },
        {
          "indexed": true,
          "internalType": "bytes32",
          "name": "bundleHash",
          "type": "bytes32"
        }
      ],
      "name": "MEVRewardDistributed",
      "type": "event"
    },
    {
      "anonymous": false,
      "inputs": [
        {
          "indexed": true,
          "internalType": "address",
          "name": "previousOwner",
          "type": "address"
        },
        {
          "indexed": true,
          "internalType": "address",
          "name": "newOwner",
          "type": "address"
        }
      ],
      "name": "OwnershipTransferred",
      "type": "event"
    },
    {
      "anonymous": false,
      "inputs": [
        {
          "indexed": true,
          "internalType": "address",
          "name": "relayer",
          "type": "address"
        },
        {
          "indexed": false,
          "internalType": "uint256",
          "name": "oldReputation",
          "type": "uint256"
        },
        {
          "indexed": false,
          "internalType": "uint256",
          "name": "newReputation",
          "type": "uint256"
        }
      ],
      "name": "RelayerReputationUpdated",
      "type": "event"
    },
    {
      "anonymous": false,
      "inputs": [
        {
          "indexed": true,
          "internalType": "bytes32",
          "name": "bundleHash",
          "type": "bytes32"
        },
        {
          "indexed": true,
          "internalType": "address",
          "name": "relayer",
          "type": "address"
        },
        {
          "indexed": false,
          "internalType": "uint256",
          "name": "actualPriorityFee",
          "type": "uint256"
        },
        {
          "indexed": false,
          "internalType": "uint256",
          "name": "actualFee",
          "type": "uint256"
        },
        {
          "indexed": false,
          "internalType": "bool",
          "name": "success",
          "type": "bool"
        }
      ],
      "name": "TransactionExecuted",
      "type": "event"
    },
    {
      "anonymous": false,
      "inputs": [
        {
          "indexed": true,
          "internalType": "bytes32",
          "name": "bundleHash",
          "type": "bytes32"
        },
        {
          "indexed": true,
          "internalType": "address",
          "name": "from",
          "type": "address"
        },
        {
          "indexed": true,
          "internalType": "address",
          "name": "to",
          "type": "address"
        },
        {
          "indexed": false,
          "internalType": "uint256",
          "name": "value",
          "type": "uint256"
        },
        {
          "indexed": false,
          "internalType": "uint256",
          "name": "maxPriorityFee",
          "type": "uint256"
        },
        {
          "indexed": false,
          "internalType": "uint256",
          "name": "maxFee",
          "type": "uint256"
        },
        {
          "indexed": false,
          "internalType": "uint256",
          "name": "deadline",
          "type": "uint256"
        }
      ],
      "name": "TransactionProtected",
      "type": "event"
    },
    {
      "inputs": [],
      "name": "MAX_DEADLINE",
      "outputs": [
        {
          "internalType": "uint256",
          "name": "",
          "type": "uint256"
        }
      ],
      "stateMutability": "view",
      "type": "function"
    },
    {
      "inputs": [],
      "name": "MIN_REPUTATION",
      "outputs": [
        {
          "internalType": "uint256",
          "name": "",
          "type": "uint256"
        }
      ],
      "stateMutability": "view",
      "type": "function"
    },
    {
      "inputs": [
        {
          "internalType": "bytes32",
          "name": "bundleHash",
          "type": "bytes32"
        },
        {
          "internalType": "uint256",
          "name": "actualPriorityFee",
          "type": "uint256"
        },
        {
          "internalType": "uint256",
          "name": "actualFee",
          "type": "uint256"
        }
      ],
      "name": "executeProtectedTransaction",
      "outputs": [
        {
          "internalType": "bool",
          "name": "",
          "type": "bool"
        }
      ],
      "stateMutability": "nonpayable",
      "type": "function"
    },
    {
      "inputs": [
        {
          "internalType": "bytes32",
          "name": "bundleHash",
          "type": "bytes32"
        }
      ],
      "name": "getProtectionStatus",
      "outputs": [
        {
          "internalType": "address",
          "name": "from",
          "type": "address"
        },
        {
          "internalType": "address",
          "name": "to",
          "type": "address"
        },
        {
          "internalType": "uint256",
          "name": "value",
          "type": "uint256"
        },
        {
          "internalType": "bool",
          "name": "executed",
          "type": "bool"
        },
        {
          "internalType": "bool",
          "name": "reverted",
          "type": "bool"
        },
        {
          "internalType": "uint256",
          "name": "deadline",
          "type": "uint256"
        }
      ],
      "stateMutability": "view",
      "type": "function"
    },
    {
      "inputs": [],
      "name": "owner",
      "outputs": [
        {
          "internalType": "address",
          "name": "",
          "type": "address"
        }
      ],
      "stateMutability": "view",
      "type": "function"
    },
    {
      "inputs": [
        {
          "internalType": "address",
          "name": "to",
          "type": "address"
        },
        {
          "internalType": "uint256",
          "name": "value",
          "type": "uint256"
        },
        {
          "internalType": "bytes",
          "name": "data",
          "type": "bytes"
        },
        {
          "internalType": "uint256",
          "name": "maxPriorityFee",
          "type": "uint256"
        },
        {
          "internalType": "uint256",
          "name": "maxFee",
          "type": "uint256"
        },
        {
          "internalType": "uint256",
          "name": "deadline",
          "type": "uint256"
        },
        {
          "internalType": "bytes32",
          "name": "bundleHash",
          "type": "bytes32"
        }
      ],
      "name": "protectTransaction",
      "outputs": [
        {
          "internalType": "bytes32",
          "name": "",
          "type": "bytes32"
        }
      ],
      "stateMutability": "nonpayable",
      "type": "function"
    },
    {
      "inputs": [
        {
          "internalType": "bytes32",
          "name": "",
          "type": "bytes32"
        }
      ],
      "name": "protectedTransactions",
      "outputs": [
        {
          "internalType": "address",
          "name": "from",
          "type": "address"
        },
        {
          "internalType": "address",
          "name": "to",
          "type": "address"
        },
        {
          "internalType": "uint256",
          "name": "value",
          "type": "uint256"
        },
        {
          "internalType": "bytes",
          "name": "data",
          "type": "bytes"
        },
        {
          "internalType": "uint256",
          "name": "maxPriorityFee",
          "type": "uint256"
        },
        {
          "internalType": "uint256",
          "name": "maxFee",
          "type": "uint256"
        },
        {
          "internalType": "uint256",
          "name": "deadline",
          "type": "uint256"
        },
        {
          "internalType": "bytes32",
          "name": "bundleHash",
          "type": "bytes32"
        },
        {
          "internalType": "address",
          "name": "relayer",
          "type": "address"
        },
        {
          "internalType": "uint256",
          "name": "timestamp",
          "type": "uint256"
        },
        {
          "internalType": "bool",
          "name": "executed",
          "type": "bool"
        },
        {
          "internalType": "bool",
          "name": "reverted",
          "type": "bool"
        }
      ],
      "stateMutability": "view",
      "type": "function"
    },
    {
      "inputs": [
        {
          "internalType": "address",
          "name": "relayer",
          "type": "address"
        },
        {
          "internalType": "uint256",
          "name": "initialReputation",
          "type": "uint256"
        }
      ],
      "name": "registerRelayer",
      "outputs": [],
      "stateMutability": "nonpayable",
      "type": "function"
    },
    {
      "inputs": [
        {
          "internalType": "address",
          "name": "",
          "type": "address"
        }
      ],
      "name": "relayerReputation",
      "outputs": [
        {
          "internalType": "uint256",
          "name": "",
          "type": "uint256"
        }
      ],
      "stateMutability": "view",
      "type": "function"
    },
    {
      "inputs": [],
      "name": "renounceOwnership",
      "outputs": [],
      "stateMutability": "nonpayable",
      "type": "function"
    },
    {
      "inputs": [],
      "name": "totalMEVRewards",
      "outputs": [
        {
          "internalType": "uint256",
          "name": "",
          "type": "uint256"
        }
      ],
      "stateMutability": "view",
      "type": "function"
    },
    {
      "inputs": [],
      "name": "totalProtectedVolume",
      "outputs": [
        {
          "internalType": "uint256",
          "name": "",
          "type": "uint256"
        }
      ],
      "stateMutability": "view",
      "type": "function"
    },
    {
      "inputs": [
        {
          "internalType": "address",
          "name": "newOwner",
          "type": "address"
        }
      ],
      "name": "transferOwnership",
      "outputs": [],
      "stateMutability": "nonpayable",
      "type": "function"
    },
    {
      "inputs": [
        {
          "internalType": "address",
          "name": "relayer",
          "type": "address"
        },
        {
          "internalType": "uint256",
          "name": "newReputation",
          "type": "uint256"
        }
      ],
      "name": "updateRelayerReputation",
      "outputs": [],
      "stateMutability": "nonpayable",
      "type": "function"
    },
    {
      "inputs": [
        {
          "internalType": "bytes32",
          "name": "",
          "type": "bytes32"
        }
      ],
      "name": "usedBundleHashes",
      "outputs": [
        {
          "internalType": "bool",
          "name": "",
          "type": "bool"
        }
      ],
      "stateMutability": "view",
      "type": "function"
    },
    {
      "inputs": [
        {
          "internalType": "address",
          "name": "recipient",
          "type": "address"
        },
        {
          "internalType": "uint256",
          "name": "amount",
          "type": "uint256"
        }
      ],
      "name": "withdrawProtocolFees",
      "outputs": [],
      "stateMutability": "nonpayable",
      "type": "function"
    },
    {
      "stateMutability": "payable",
      "type": "receive"
    }
  ],
  "bytecode": "0x60806040523480156200001157600080fd5b5060016000819055506200003a6200002e6200004060201b60201c565b6200004860201b60201c565b6200010e565b600033905090565b6000600160009054906101000a900473ffffffffffffffffffffffffffffffffffffffff16905081600160006101000a81548173ffffffffffffffffffffffffffffffffffffffff021916908373ffffffffffffffffffffffffffffffffffffffff1602179055508173ffffffffffffffffffffffffffffffffffffffff168173ffffffffffffffffffffffffffffffffffffffff167f8be0079c531659141344cd1fd0a4f28419497f9722a3daafe3b4186f6b6457e060405160405180910390a35050565b612de3806200011e6000396000f3fe6080604052600436106100f75760003560e01c806387d2f32c1161008a578063ae375e9e11610059578063ae375e9e1461032e578063b304afbf1461036b578063bc4c2a3f146103ad578063f2fde38b146103ea576100fe565b806387d2f32c146102745780638da5cb5b146102b15780638deabd37146102dc578063a3c9c79914610305576100fe565b8063715018a6116100c6578063715018a6146101ca57806374740f72146101e15780637e352c311461020c57806386ff3d2814610237576100fe565b80630b6d5a8f146101035780631a7a73c21461014b578063697c6045146101745780636f0e530f1461019f576100fe565b366100fe57005b600080fd5b34801561010f57600080fd5b5061012a60048036038101906101259190611ab9565b610413565b6040516101429c9b9a99989796959493929190611bfa565b60405180910390f35b34801561015757600080fd5b50610172600480360381019061016d9190611d13565b610575565b005b34801561018057600080fd5b506101896106e0565b6040516101969190611d53565b60405180910390f35b3480156101ab57600080fd5b506101b46106e5565b6040516101c19190611d53565b60405180910390f35b3480156101d657600080fd5b506101df6106eb565b005b3480156101ed57600080fd5b506101f66106ff565b6040516102039190611d53565b60405180910390f35b34801561021857600080fd5b50610221610705565b60405161022e9190611d53565b60405180910390f35b34801561024357600080fd5b5061025e60048036038101906102599190611dd3565b61070b565b60405161026b9190611e95565b60405180910390f35b34801561028057600080fd5b5061029b60048036038101906102969190611eb0565b610bdc565b6040516102a89190611d53565b60405180910390f35b3480156102bd57600080fd5b506102c6610bf4565b6040516102d39190611edd565b60405180910390f35b3480156102e857600080fd5b5061030360048036038101906102fe9190611d13565b610c1e565b005b34801561031157600080fd5b5061032c60048036038101906103279190611d13565b610db6565b005b34801561033a57600080fd5b5061035560048036038101906103509190611ab9565b610f0a565b6040516103629190611ef8565b60405180910390f35b34801561037757600080fd5b50610392600480360381019061038d9190611ab9565b610f2a565b6040516103a496959493929190611f13565b60405180910390f35b3480156103b957600080fd5b506103d460048036038101906103cf9190611f74565b611192565b6040516103e19190611ef8565b60405180910390f35b3480156103f657600080fd5b50610411600480360381019061040c9190611eb0565b6116de565b005b60026020528060005260406000206000915090508060000160009054906101000a900473ffffffffffffffffffffffffffffffffffffffff16908060010160009054906101000a900473ffffffffffffffffffffffffffffffffffffffff169080600201549080600301805461048890611ff6565b80601f01602080910402602001604051908101604052809291908181526020018280546104b490611ff6565b80156105015780601f106104d657610100808354040283529160200191610501565b820191906000526020600020905b8154815290600101906020018083116104e457829003601f168201915b5050505050908060040154908060050154908060060154908060070154908060080160009054906101000a900473ffffffffffffffffffffffffffffffffffffffff169080600901549080600a0160009054906101000a900460ff169080600a0160019054906101000a900460ff1690508c565b61057d611761565b600073ffffffffffffffffffffffffffffffffffffffff168273ffffffffffffffffffffffffffffffffffffffff16036105ec576040517f08c379a00000000000000000000000000000000000000000000000000000000081526004016105e390612084565b60405180910390fd5b4781111561062f576040517f08c379a0000000000000000000000000000000000000000000000000000000008152600401610626906120f0565b60405180910390fd5b60008273ffffffffffffffffffffffffffffffffffffffff168260405161065590612141565b60006040518083038185875af1925050503d8060008114610692576040519150601f19603f3d011682016040523d82523d6000602084013e610697565b606091505b50509050806106db576040517f08c379a00000000000000000000000000000000000000000000000000000000081526004016106d2906121a2565b60405180910390fd5b505050565b606481565b61070881565b6106f3611761565b6106fd60006117df565b565b60065481565b60055481565b6000826107084261071c91906121f1565b81111561075e576040517f08c379a000000000000000000000000000000000000000000000000000000000815260040161075590612271565b60405180910390fd5b4281116107a0576040517f08c379a0000000000000000000000000000000000000000000000000000000008152600401610797906122dd565b60405180910390fd5b826004600082815260200190815260200160002060009054906101000a900460ff1615610802576040517f08c379a00000000000000000000000000000000000000000000000000000000081526004016107f990612349565b60405180910390fd5b600073ffffffffffffffffffffffffffffffffffffffff168b73ffffffffffffffffffffffffffffffffffffffff1603610871576040517f08c379a000000000000000000000000000000000000000000000000000000000815260040161086890612084565b60405180910390fd5b858711156108b4576040517f08c379a00000000000000000000000000000000000000000000000000000000081526004016108ab906123b5565b60405180910390fd5b60006040518061018001604052803373ffffffffffffffffffffffffffffffffffffffff1681526020018d73ffffffffffffffffffffffffffffffffffffffff1681526020018c81526020018b8b8080601f016020809104026020016040519081016040528093929190818152602001838380828437600081840152601f19601f820116905080830192505050505050508152602001898152602001888152602001878152602001868152602001600073ffffffffffffffffffffffffffffffffffffffff168152602001428152602001600015158152602001600015158152509050806002600087815260200190815260200160002060008201518160000160006101000a81548173ffffffffffffffffffffffffffffffffffffffff021916908373ffffffffffffffffffffffffffffffffffffffff16021790555060208201518160010160006101000a81548173ffffffffffffffffffffffffffffffffffffffff021916908373ffffffffffffffffffffffffffffffffffffffff160217905550604082015181600201556060820151816003019081610a5891906125b0565b506080820151816004015560a0820151816005015560c0820151816006015560e082015181600701556101008201518160080160006101000a81548173ffffffffffffffffffffffffffffffffffffffff021916908373ffffffffffffffffffffffffffffffffffffffff160217905550610120820151816009015561014082015181600a0160006101000a81548160ff02191690831515021790555061016082015181600a0160016101000a81548160ff02191690831515021790555090505060016004600087815260200190815260200160002060006101000a81548160ff0219169083151502179055508a60056000828254610b5791906121f1565b925050819055508b73ffffffffffffffffffffffffffffffffffffffff163373ffffffffffffffffffffffffffffffffffffffff16867fea9b476ee39e3688aa02187d3925ff29ecfd4d960af48b3080bf73818f107ffb8e8c8c8c604051610bc29493929190612682565b60405180910390a484935050505098975050505050505050565b60036020528060005260406000206000915090505481565b6000600160009054906101000a900473ffffffffffffffffffffffffffffffffffffffff16905090565b610c26611761565b600073ffffffffffffffffffffffffffffffffffffffff168273ffffffffffffffffffffffffffffffffffffffff1603610c95576040517f08c379a0000000000000000000000000000000000000000000000000000000008152600401610c8c90612713565b60405180910390fd5b6064811015610cd9576040517f08c379a0000000000000000000000000000000000000000000000000000000008152600401610cd09061277f565b60405180910390fd5b6000600360008473ffffffffffffffffffffffffffffffffffffffff1673ffffffffffffffffffffffffffffffffffffffff16815260200190815260200160002054905081600360008573ffffffffffffffffffffffffffffffffffffffff1673ffffffffffffffffffffffffffffffffffffffff168152602001908152602001600020819055508273ffffffffffffffffffffffffffffffffffffffff167ff948ee2f2c8ec4c3b5ce046d85d997d6623ba422e061d7f131b149473ad62b0e8284604051610da992919061279f565b60405180910390a2505050565b610dbe611761565b600073ffffffffffffffffffffffffffffffffffffffff168273ffffffffffffffffffffffffffffffffffffffff1603610e2d576040517f08c379a0000000000000000000000000000000000000000000000000000000008152600401610e2490612713565b60405180910390fd5b6000600360008473ffffffffffffffffffffffffffffffffffffffff1673ffffffffffffffffffffffffffffffffffffffff16815260200190815260200160002054905081600360008573ffffffffffffffffffffffffffffffffffffffff1673ffffffffffffffffffffffffffffffffffffffff168152602001908152602001600020819055508273ffffffffffffffffffffffffffffffffffffffff167ff948ee2f2c8ec4c3b5ce046d85d997d6623ba422e061d7f131b149473ad62b0e8284604051610efd92919061279f565b60405180910390a2505050565b60046020528060005260406000206000915054906101000a900460ff1681565b600080600080600080600060026000898152602001908152602001600020604051806101800160405290816000820160009054906101000a900473ffffffffffffffffffffffffffffffffffffffff1673ffffffffffffffffffffffffffffffffffffffff1673ffffffffffffffffffffffffffffffffffffffff1681526020016001820160009054906101000a900473ffffffffffffffffffffffffffffffffffffffff1673ffffffffffffffffffffffffffffffffffffffff1673ffffffffffffffffffffffffffffffffffffffff1681526020016002820154815260200160038201805461101a90611ff6565b80601f016020809104026020016040519081016040528092919081815260200182805461104690611ff6565b80156110935780601f1061106857610100808354040283529160200191611093565b820191906000526020600020905b81548152906001019060200180831161107657829003601f168201915b50505050508152602001600482015481526020016005820154815260200160068201548152602001600782015481526020016008820160009054906101000a900473ffffffffffffffffffffffffffffffffffffffff1673ffffffffffffffffffffffffffffffffffffffff1673ffffffffffffffffffffffffffffffffffffffff16815260200160098201548152602001600a820160009054906101000a900460ff16151515158152602001600a820160019054906101000a900460ff16151515158152505090508060000151816020015182604001518361014001518461016001518560c001519650965096509650965096505091939550919395565b60006064600360003373ffffffffffffffffffffffffffffffffffffffff1673ffffffffffffffffffffffffffffffffffffffff168152602001908152602001600020541015611217576040517f08c379a000000000000000000000000000000000000000000000000000000000815260040161120e9061283a565b60405180910390fd5b61121f6118a5565b6000600260008681526020019081526020016000209050600073ffffffffffffffffffffffffffffffffffffffff168160000160009054906101000a900473ffffffffffffffffffffffffffffffffffffffff1673ffffffffffffffffffffffffffffffffffffffff16036112c9576040517f08c379a00000000000000000000000000000000000000000000000000000000081526004016112c0906128a6565b60405180910390fd5b80600a0160009054906101000a900460ff161561131b576040517f08c379a000000000000000000000000000000000000000000000000000000000815260040161131290612912565b60405180910390fd5b8060060154421115611362576040517f08c379a0000000000000000000000000000000000000000000000000000000008152600401611359906122dd565b60405180910390fd5b80600401548411156113a9576040517f08c379a00000000000000000000000000000000000000000000000000000000081526004016113a09061297e565b60405180910390fd5b80600501548311156113f0576040517f08c379a00000000000000000000000000000000000000000000000000000000081526004016113e7906129ea565b60405180910390fd5b338160080160006101000a81548173ffffffffffffffffffffffffffffffffffffffff021916908373ffffffffffffffffffffffffffffffffffffffff160217905550600181600a0160006101000a81548160ff02191690831515021790555060006114608583600401546118f4565b905060008260010160009054906101000a900473ffffffffffffffffffffffffffffffffffffffff1673ffffffffffffffffffffffffffffffffffffffff168360020154846003016040516114b59190612a8d565b60006040518083038185875af1925050503d80600081146114f2576040519150601f19603f3d011682016040523d82523d6000602084013e6114f7565b606091505b50509050801583600a0160016101000a81548160ff0219169083151502179055508080156115255750600082115b156115915761153533838961193f565b600a600360003373ffffffffffffffffffffffffffffffffffffffff1673ffffffffffffffffffffffffffffffffffffffff168152602001908152602001600020600082825461158591906121f1565b92505081905550611676565b80611675576014600360003373ffffffffffffffffffffffffffffffffffffffff1673ffffffffffffffffffffffffffffffffffffffff16815260200190815260200160002054116115e4576000611631565b6014600360003373ffffffffffffffffffffffffffffffffffffffff1673ffffffffffffffffffffffffffffffffffffffff168152602001908152602001600020546116309190612aa4565b5b600360003373ffffffffffffffffffffffffffffffffffffffff1673ffffffffffffffffffffffffffffffffffffffff168152602001908152602001600020819055505b5b3373ffffffffffffffffffffffffffffffffffffffff16877fff736d5bede2bd89b67ef9a6ab7df596ea27dd90d5da9ca118eb0ed35e524c508888856040516116c193929190612ad8565b60405180910390a38093505050506116d7611a67565b9392505050565b6116e6611761565b600073ffffffffffffffffffffffffffffffffffffffff168173ffffffffffffffffffffffffffffffffffffffff1603611755576040517f08c379a000000000000000000000000000000000000000000000000000000000815260040161174c90612b81565b60405180910390fd5b61175e816117df565b50565b611769611a71565b73ffffffffffffffffffffffffffffffffffffffff16611787610bf4565b73ffffffffffffffffffffffffffffffffffffffff16146117dd576040517f08c379a00000000000000000000000000000000000000000000000000000000081526004016117d490612bed565b60405180910390fd5b565b6000600160009054906101000a900473ffffffffffffffffffffffffffffffffffffffff16905081600160006101000a81548173ffffffffffffffffffffffffffffffffffffffff021916908373ffffffffffffffffffffffffffffffffffffffff1602179055508173ffffffffffffffffffffffffffffffffffffffff168173ffffffffffffffffffffffffffffffffffffffff167f8be0079c531659141344cd1fd0a4f28419497f9722a3daafe3b4186f6b6457e060405160405180910390a35050565b6002600054036118ea576040517f08c379a00000000000000000000000000000000000000000000000000000000081526004016118e190612c59565b60405180910390fd5b6002600081905550565b60008183106119065760009050611939565b600083836119149190612aa4565b9050600060646050836119279190612c79565b6119319190612cea565b905080925050505b92915050565b60008373ffffffffffffffffffffffffffffffffffffffff168360405161196590612141565b60006040518083038185875af1925050503d80600081146119a2576040519150601f19603f3d011682016040523d82523d6000602084013e6119a7565b606091505b50509050806119eb576040517f08c379a00000000000000000000000000000000000000000000000000000000081526004016119e290612d8d565b60405180910390fd5b82600660008282546119fd91906121f1565b9250508190555081600143611a129190612aa4565b408573ffffffffffffffffffffffffffffffffffffffff167f2d36e9436ea3b34f3af6d18da6adf7f229f4e78a30f1022d7ccfb35f9f1e7e4386604051611a599190611d53565b60405180910390a450505050565b6001600081905550565b600033905090565b600080fd5b600080fd5b6000819050919050565b611a9681611a83565b8114611aa157600080fd5b50565b600081359050611ab381611a8d565b92915050565b600060208284031215611acf57611ace611a79565b5b6000611add84828501611aa4565b91505092915050565b600073ffffffffffffffffffffffffffffffffffffffff82169050919050565b6000611b1182611ae6565b9050919050565b611b2181611b06565b82525050565b6000819050919050565b611b3a81611b27565b82525050565b600081519050919050565b600082825260208201905092915050565b60005b83811015611b7a578082015181840152602081019050611b5f565b60008484015250505050565b6000601f19601f8301169050919050565b6000611ba282611b40565b611bac8185611b4b565b9350611bbc818560208601611b5c565b611bc581611b86565b840191505092915050565b611bd981611a83565b82525050565b60008115159050919050565b611bf481611bdf565b82525050565b600061018082019050611c10600083018f611b18565b611c1d602083018e611b18565b611c2a604083018d611b31565b8181036060830152611c3c818c611b97565b9050611c4b608083018b611b31565b611c5860a083018a611b31565b611c6560c0830189611b31565b611c7260e0830188611bd0565b611c80610100830187611b18565b611c8e610120830186611b31565b611c9c610140830185611beb565b611caa610160830184611beb565b9d9c50505050505050505050505050565b611cc481611b06565b8114611ccf57600080fd5b50565b600081359050611ce181611cbb565b92915050565b611cf081611b27565b8114611cfb57600080fd5b50565b600081359050611d0d81611ce7565b92915050565b60008060408385031215611d2a57611d29611a79565b5b6000611d3885828601611cd2565b9250506020611d4985828601611cfe565b9150509250929050565b6000602082019050611d686000830184611b31565b92915050565b600080fd5b600080fd5b600080fd5b60008083601f840112611d9357611d92611d6e565b5b8235905067ffffffffffffffff811115611db057611daf611d73565b5b602083019150836001820283011115611dcc57611dcb611d78565b5b9250929050565b60008060008060008060008060e0898b031215611df357611df2611a79565b5b6000611e018b828c01611cd2565b9850506020611e128b828c01611cfe565b975050604089013567ffffffffffffffff811115611e3357611e32611a7e565b5b611e3f8b828c01611d7d565b96509650506060611e528b828c01611cfe565b9450506080611e638b828c01611cfe565b93505060a0611e748b828c01611cfe565b92505060c0611e858b828c01611aa4565b9150509295985092959890939650565b6000602082019050611eaa6000830184611bd0565b92915050565b600060208284031215611ec657611ec5611a79565b5b6000611ed484828501611cd2565b91505092915050565b6000602082019050611ef26000830184611b18565b92915050565b6000602082019050611f0d6000830184611beb565b92915050565b600060c082019050611f286000830189611b18565b611f356020830188611b18565b611f426040830187611b31565b611f4f6060830186611beb565b611f5c6080830185611beb565b611f6960a0830184611b31565b979650505050505050565b600080600060608486031215611f8d57611f8c611a79565b5b6000611f9b86828701611aa4565b9350506020611fac86828701611cfe565b9250506040611fbd86828701611cfe565b9150509250925092565b7f4e487b7100000000000000000000000000000000000000000000000000000000600052602260045260246000fd5b6000600282049050600182168061200e57607f821691505b60208210810361202157612020611fc7565b5b50919050565b600082825260208201905092915050565b7f4d4556536869656c643a20496e76616c696420726563697069656e7400000000600082015250565b600061206e601c83612027565b915061207982612038565b602082019050919050565b6000602082019050818103600083015261209d81612061565b9050919050565b7f4d4556536869656c643a20496e73756666696369656e742062616c616e636500600082015250565b60006120da601f83612027565b91506120e5826120a4565b602082019050919050565b60006020820190508181036000830152612109816120cd565b9050919050565b600081905092915050565b50565b600061212b600083612110565b91506121368261211b565b600082019050919050565b600061214c8261211e565b9150819050919050565b7f4d4556536869656c643a205769746864726177616c206661696c656400000000600082015250565b600061218c601c83612027565b915061219782612156565b602082019050919050565b600060208201905081810360008301526121bb8161217f565b9050919050565b7f4e487b7100000000000000000000000000000000000000000000000000000000600052601160045260246000fd5b60006121fc82611b27565b915061220783611b27565b925082820190508082111561221f5761221e6121c2565b5b92915050565b7f4d4556536869656c643a20446561646c696e6520746f6f206661720000000000600082015250565b600061225b601b83612027565b915061226682612225565b602082019050919050565b6000602082019050818103600083015261228a8161224e565b9050919050565b7f4d4556536869656c643a20446561646c696e6520706173736564000000000000600082015250565b60006122c7601a83612027565b91506122d282612291565b602082019050919050565b600060208201905081810360008301526122f6816122ba565b9050919050565b7f4d4556536869656c643a2042756e646c6520616c726561647920757365640000600082015250565b6000612333601e83612027565b915061233e826122fd565b602082019050919050565b6000602082019050818103600083015261236281612326565b9050919050565b7f4d4556536869656c643a20496e76616c69642066656520737472756374757265600082015250565b600061239f602083612027565b91506123aa82612369565b602082019050919050565b600060208201905081810360008301526123ce81612392565b9050919050565b7f4e487b7100000000000000000000000000000000000000000000000000000000600052604160045260246000fd5b60008190508160005260206000209050919050565b60006020601f8301049050919050565b600082821b905092915050565b6000600883026124667fffffffffffffffffffffffffffffffffffffffffffffffffffffffffffffffff82612429565b6124708683612429565b95508019841693508086168417925050509392505050565b6000819050919050565b60006124ad6124a86124a384611b27565b612488565b611b27565b9050919050565b6000819050919050565b6124c783612492565b6124db6124d3826124b4565b848454612436565b825550505050565b600090565b6124f06124e3565b6124fb8184846124be565b505050565b5b8181101561251f576125146000826124e8565b600181019050612501565b5050565b601f8211156125645761253581612404565b61253e84612419565b8101602085101561254d578190505b61256161255985612419565b830182612500565b50505b505050565b600082821c905092915050565b600061258760001984600802612569565b1980831691505092915050565b60006125a08383612576565b9150826002028217905092915050565b6125b982611b40565b67ffffffffffffffff8111156125d2576125d16123d5565b5b6125dc8254611ff6565b6125e7828285612523565b600060209050601f83116001811461261a5760008415612608578287015190505b6126128582612594565b86555061267a565b601f19841661262886612404565b60005b828110156126505784890151825560018201915060208501945060208101905061262b565b8683101561266d5784890151612669601f891682612576565b8355505b6001600288020188555050505b505050505050565b60006080820190506126976000830187611b31565b6126a46020830186611b31565b6126b16040830185611b31565b6126be6060830184611b31565b95945050505050565b7f4d4556536869656c643a20496e76616c69642072656c61796572000000000000600082015250565b60006126fd601a83612027565b9150612708826126c7565b602082019050919050565b6000602082019050818103600083015261272c816126f0565b9050919050565b7f4d4556536869656c643a2052657075746174696f6e20746f6f206c6f77000000600082015250565b6000612769601d83612027565b915061277482612733565b602082019050919050565b600060208201905081810360008301526127988161275c565b9050919050565b60006040820190506127b46000830185611b31565b6127c16020830184611b31565b9392505050565b7f4d4556536869656c643a20496e73756666696369656e7420726570757461746960008201527f6f6e000000000000000000000000000000000000000000000000000000000000602082015250565b6000612824602283612027565b915061282f826127c8565b604082019050919050565b6000602082019050818103600083015261285381612817565b9050919050565b7f4d4556536869656c643a205472616e73616374696f6e206e6f7420666f756e64600082015250565b6000612890602083612027565b915061289b8261285a565b602082019050919050565b600060208201905081810360008301526128bf81612883565b9050919050565b7f4d4556536869656c643a20416c72656164792065786563757465640000000000600082015250565b60006128fc601b83612027565b9150612907826128c6565b602082019050919050565b6000602082019050818103600083015261292b816128ef565b9050919050565b7f4d4556536869656c643a205072696f726974792066656520746f6f2068696768600082015250565b6000612968602083612027565b915061297382612932565b602082019050919050565b600060208201905081810360008301526129978161295b565b9050919050565b7f4d4556536869656c643a2046656520746f6f2068696768000000000000000000600082015250565b60006129d4601783612027565b91506129df8261299e565b602082019050919050565b60006020820190508181036000830152612a03816129c7565b9050919050565b60008154612a1781611ff6565b612a218186612110565b94506001821660008114612a3c5760018114612a5157612a84565b60ff1983168652811515820286019350612a84565b612a5a85612404565b60005b83811015612a7c57815481890152600182019150602081019050612a5d565b838801955050505b50505092915050565b6000612a998284612a0a565b915081905092915050565b6000612aaf82611b27565b9150612aba83611b27565b9250828203905081811115612ad257612ad16121c2565b5b92915050565b6000606082019050612aed6000830186611b31565b612afa6020830185611b31565b612b076040830184611beb565b949350505050565b7f4f776e61626c653a206e6577206f776e657220697320746865207a65726f206160008201527f6464726573730000000000000000000000000000000000000000000000000000602082015250565b6000612b6b602683612027565b9150612b7682612b0f565b604082019050919050565b60006020820190508181036000830152612b9a81612b5e565b9050919050565b7f4f776e61626c653a2063616c6c6572206973206e6f7420746865206f776e6572600082015250565b6000612bd7602083612027565b9150612be282612ba1565b602082019050919050565b60006020820190508181036000830152612c0681612bca565b9050919050565b7f5265656e7472616e637947756172643a207265656e7472616e742063616c6c00600082015250565b6000612c43601f83612027565b9150612c4e82612c0d565b602082019050919050565b60006020820190508181036000830152612c7281612c36565b9050919050565b6000612c8482611b27565b9150612c8f83611b27565b9250828202612c9d81611b27565b91508282048414831517612cb457612cb36121c2565b5b5092915050565b7f4e487b7100000000000000000000000000000000000000000000000000000000600052601260045260246000fd5b6000612cf582611b27565b9150612d0083611b27565b925082612d1057612d0f612cbb565b5b828204905092915050565b7f4d4556536869656c643a2052657761726420646973747269627574696f6e206660008201527f61696c6564000000000000000000000000000000000000000000000000000000602082015250565b6000612d77602583612027565b9150612d8282612d1b565b604082019050919050565b60006020820190508181036000830152612da681612d6a565b905091905056fea2646970667358221220907406b52b4d962e85ce60a95b28ede6098d634e861f76f6d0ea66bee9dc916c64736f6c63430008130033",
  "linkReferences": {},
  "deployedLinkReferences": {}
}