{
  "_format": "hh-sol-artifact-1",
  "contractName": "ApexFlashAggregator",
  "sourceName": "core-logic/contracts/ApexFlashAggregator.sol",
  "abi": [
    {
      "inputs": [
        {
          "internalType": "contract IPoolAddressesProvider",
          "name": "aaveProvider",
          "type": "address"
        },
        {
          "internalType": "address",
          "name": "_balancerVault",
          "type": "address"
        }
      ],
      "stateMutability": "nonpayable",
      "type": "constructor"
    },
    {
      "anonymous": false,
      "inputs": [
        {
          "indexed": true,
          "internalType": "enum ApexFlashAggregator.FlashProvider",
          "name": "provider",
          "type": "uint8"
        },
        {
          "indexed": true,
          "internalType": "address",
          "name": "token",
          "type": "address"
        },
        {
          "indexed": false,
          "internalType": "uint256",
          "name": "amount",
          "type": "uint256"
        },
        {
          "indexed": false,
          "internalType": "uint256",
          "name": "fee",
          "type": "uint256"
        }
      ],
      "name": "FlashLoanExecuted",
      "type": "event"
    },
    {
      "anonymous": false,
      "inputs": [
        {
          "indexed": true,
          "internalType": "address",
          "name": "user",
          "type": "address"
        },
        {
          "indexed": false,
          "internalType": "uint256",
          "name": "amount",
          "type": "uint256"
        }
      ],
      "name": "ProfitAccumulated",
      "type": "event"
    },
    {
      "anonymous": false,
      "inputs": [
        {
          "indexed": true,
          "internalType": "address",
          "name": "user",
          "type": "address"
        },
        {
          "indexed": false,
          "internalType": "uint256",
          "name": "amount",
          "type": "uint256"
        }
      ],
      "name": "ProfitWithdrawn",
      "type": "event"
    },
    {
      "inputs": [],
      "name": "ADDRESSES_PROVIDER",
      "outputs": [
        {
          "internalType": "contract IPoolAddressesProvider",
          "name": "",
          "type": "address"
        }
      ],
      "stateMutability": "view",
      "type": "function"
    },
    {
      "inputs": [],
      "name": "POOL",
      "outputs": [
        {
          "internalType": "contract IPool",
          "name": "",
          "type": "address"
        }
      ],
      "stateMutability": "view",
      "type": "function"
    },
    {
      "inputs": [
        {
          "internalType": "address",
          "name": "",
          "type": "address"
        }
      ],
      "name": "accumulatedProfits",
      "outputs": [
        {
          "internalType": "uint256",
          "name": "",
          "type": "uint256"
        }
      ],
      "stateMutability": "view",
      "type": "function"
    },
    {
      "inputs": [],
      "name": "balancerVault",
      "outputs": [
        {
          "internalType": "contract IBalancerVault",
          "name": "",
          "type": "address"
        }
      ],
      "stateMutability": "view",
      "type": "function"
    },
    {
      "inputs": [
        {
          "internalType": "address",
          "name": "token",
          "type": "address"
        },
        {
          "internalType": "uint256",
          "name": "amount",
          "type": "uint256"
        },
        {
          "internalType": "bytes",
          "name": "data",
          "type": "bytes"
        }
      ],
      "name": "executeArbitrage",
      "outputs": [],
      "stateMutability": "nonpayable",
      "type": "function"
    },
    {
      "inputs": [
        {
          "internalType": "address",
          "name": "token",
          "type": "address"
        },
        {
          "internalType": "uint256",
          "name": "amount",
          "type": "uint256"
        },
        {
          "internalType": "uint256",
          "name": "premium",
          "type": "uint256"
        },
        {
          "internalType": "address",
          "name": "initiator",
          "type": "address"
        },
        {
          "internalType": "bytes",
          "name": "params",
          "type": "bytes"
        }
      ],
      "name": "executeOperation",
      "outputs": [
        {
          "internalType": "bool",
          "name": "",
          "type": "bool"
        }
      ],
      "stateMutability": "nonpayable",
      "type": "function"
    },
    {
      "inputs": [],
      "name": "owner",
      "outputs": [
        {
          "internalType": "address",
          "name": "",
          "type": "address"
        }
      ],
      "stateMutability": "view",
      "type": "function"
    },
    {
      "inputs": [
        {
          "internalType": "enum ApexFlashAggregator.FlashProvider",
          "name": "",
          "type": "uint8"
        }
      ],
      "name": "providerFees",
      "outputs": [
        {
          "internalType": "uint256",
          "name": "",
          "type": "uint256"
        }
      ],
      "stateMutability": "view",
      "type": "function"
    },
    {
      "inputs": [
        {
          "internalType": "address[]",
          "name": "tokens",
          "type": "address[]"
        },
        {
          "internalType": "uint256[]",
          "name": "amounts",
          "type": "uint256[]"
        },
        {
          "internalType": "uint256[]",
          "name": "feeAmounts",
          "type": "uint256[]"
        },
        {
          "internalType": "bytes",
          "name": "userData",
          "type": "bytes"
        }
      ],
      "name": "receiveFlashLoan",
      "outputs": [],
      "stateMutability": "nonpayable",
      "type": "function"
    },
    {
      "inputs": [
        {
          "internalType": "address",
          "name": "token",
          "type": "address"
        },
        {
          "internalType": "address",
          "name": "pool",
          "type": "address"
        }
      ],
      "name": "setUniswapPool",
      "outputs": [],
      "stateMutability": "nonpayable",
      "type": "function"
    },
    {
      "inputs": [
        {
          "internalType": "uint256",
          "name": "fee0",
          "type": "uint256"
        },
        {
          "internalType": "uint256",
          "name": "fee1",
          "type": "uint256"
        },
        {
          "internalType": "bytes",
          "name": "data",
          "type": "bytes"
        }
      ],
      "name": "uniswapV3FlashCallback",
      "outputs": [],
      "stateMutability": "nonpayable",
      "type": "function"
    },
    {
      "inputs": [
        {
          "internalType": "address",
          "name": "",
          "type": "address"
        }
      ],
      "name": "uniswapV3Pools",
      "outputs": [
        {
          "internalType": "address",
          "name": "",
          "type": "address"
        }
      ],
      "stateMutability": "view",
      "type": "function"
    },
    {
      "inputs": [],
      "name": "viewProfits",
      "outputs": [
        {
          "internalType": "uint256",
          "name": "",
          "type": "uint256"
        }
      ],
      "stateMutability": "view",
      "type": "function"
    },
    {
      "inputs": [],
      "name": "withdrawProfits",
      "outputs": [],
      "stateMutability": "nonpayable",
      "type": "function"
    },
    {
      "stateMutability": "payable",
      "type": "receive"
    }
  ],
  "bytecode": "0x60c06040523480156200001157600080fd5b50604051620036f2380380620036f283398181016040528101906200003791906200039c565b818073ffffffffffffffffffffffffffffffffffffffff1660808173ffffffffffffffffffffffffffffffffffffffff16815250508073ffffffffffffffffffffffffffffffffffffffff1663026b1d5f6040518163ffffffff1660e01b8152600401602060405180830381865afa158015620000b8573d6000803e3d6000fd5b505050506040513d601f19601f82011682018060405250810190620000de9190620003e3565b73ffffffffffffffffffffffffffffffffffffffff1660a08173ffffffffffffffffffffffffffffffffffffffff168152505050336000806101000a81548173ffffffffffffffffffffffffffffffffffffffff021916908373ffffffffffffffffffffffffffffffffffffffff16021790555080600160006101000a81548173ffffffffffffffffffffffffffffffffffffffff021916908373ffffffffffffffffffffffffffffffffffffffff160217905550600960036000806004811115620001af57620001ae62000415565b5b6004811115620001c457620001c362000415565b5b81526020019081526020016000208190555060006003600060016004811115620001f357620001f262000415565b5b600481111562000208576200020762000415565b5b8152602001908152602001600020819055506000600360006002600481111562000237576200023662000415565b5b60048111156200024c576200024b62000415565b5b815260200190815260200160002081905550600060036000600360048111156200027b576200027a62000415565b5b600481111562000290576200028f62000415565b5b815260200190815260200160002081905550600060036000600480811115620002be57620002bd62000415565b5b6004811115620002d357620002d262000415565b5b815260200190815260200160002081905550505062000444565b600080fd5b600073ffffffffffffffffffffffffffffffffffffffff82169050919050565b60006200031f82620002f2565b9050919050565b6000620003338262000312565b9050919050565b620003458162000326565b81146200035157600080fd5b50565b60008151905062000365816200033a565b92915050565b620003768162000312565b81146200038257600080fd5b50565b60008151905062000396816200036b565b92915050565b60008060408385031215620003b657620003b5620002ed565b5b6000620003c68582860162000354565b9250506020620003d98582860162000385565b9150509250929050565b600060208284031215620003fc57620003fb620002ed565b5b60006200040c8482850162000385565b91505092915050565b7f4e487b7100000000000000000000000000000000000000000000000000000000600052602160045260246000fd5b60805160a0516132736200047f600039600081816103c1015281816108e001528181610d3501526115690152600061037501526132736000f3fe6080604052600436106100e15760003560e01c80637535d2461161007f5780639f77db7c116100595780639f77db7c146102a7578063e9cbafb0146102e4578063ebc6fd381461030d578063f04f27071461034a576100e8565b80637535d246146102285780637c1d9539146102535780638da5cb5b1461027c576100e8565b806335dda72f116100bb57806335dda72f1461018057806339913e09146101a95780633a13613d146101c0578063438e65cf146101fd576100e8565b80630542975c146100ed578063158274a5146101185780631b11d0ff14610143576100e8565b366100e857005b600080fd5b3480156100f957600080fd5b50610102610373565b60405161010f9190611b44565b60405180910390f35b34801561012457600080fd5b5061012d610397565b60405161013a9190611b80565b60405180910390f35b34801561014f57600080fd5b5061016a60048036038101906101659190611c88565b6103bd565b6040516101779190611d3d565b60405180910390f35b34801561018c57600080fd5b506101a760048036038101906101a29190611d58565b610517565b005b3480156101b557600080fd5b506101be610627565b005b3480156101cc57600080fd5b506101e760048036038101906101e29190611dbd565b61087f565b6040516101f49190611df9565b60405180910390f35b34801561020957600080fd5b50610212610897565b60405161021f9190611df9565b60405180910390f35b34801561023457600080fd5b5061023d6108de565b60405161024a9190611e35565b60405180910390f35b34801561025f57600080fd5b5061027a60048036038101906102759190611e50565b610902565b005b34801561028857600080fd5b506102916109fe565b60405161029e9190611ed3565b60405180910390f35b3480156102b357600080fd5b506102ce60048036038101906102c99190611eee565b610a22565b6040516102db9190611ed3565b60405180910390f35b3480156102f057600080fd5b5061030b60048036038101906103069190611f1b565b610a55565b005b34801561031957600080fd5b50610334600480360381019061032f9190611eee565b610b29565b6040516103419190611df9565b60405180910390f35b34801561035657600080fd5b50610371600480360381019061036c9190612256565b610b41565b005b7f000000000000000000000000000000000000000000000000000000000000000081565b600160009054906101000a900473ffffffffffffffffffffffffffffffffffffffff1681565b60007f000000000000000000000000000000000000000000000000000000000000000073ffffffffffffffffffffffffffffffffffffffff163373ffffffffffffffffffffffffffffffffffffffff161461044d576040517f08c379a00000000000000000000000000000000000000000000000000000000081526004016104449061238a565b60405180910390fd5b3073ffffffffffffffffffffffffffffffffffffffff168473ffffffffffffffffffffffffffffffffffffffff16146104bb576040517f08c379a00000000000000000000000000000000000000000000000000000000081526004016104b2906123f6565b60405180910390fd5b61050b87878786868080601f016020809104026020016040519081016040528093929190818152602001838380828437600081840152601f19601f82011690508083019250505050505050610c9e565b90509695505050505050565b60008054906101000a900473ffffffffffffffffffffffffffffffffffffffff1673ffffffffffffffffffffffffffffffffffffffff163373ffffffffffffffffffffffffffffffffffffffff16146105a5576040517f08c379a000000000000000000000000000000000000000000000000000000000815260040161059c90612462565b60405180910390fd5b80600260008473ffffffffffffffffffffffffffffffffffffffff1673ffffffffffffffffffffffffffffffffffffffff16815260200190815260200160002060006101000a81548173ffffffffffffffffffffffffffffffffffffffff021916908373ffffffffffffffffffffffffffffffffffffffff1602179055505050565b60008054906101000a900473ffffffffffffffffffffffffffffffffffffffff1673ffffffffffffffffffffffffffffffffffffffff163373ffffffffffffffffffffffffffffffffffffffff16146106b5576040517f08c379a00000000000000000000000000000000000000000000000000000000081526004016106ac90612462565b60405180910390fd5b6000600460003373ffffffffffffffffffffffffffffffffffffffff1673ffffffffffffffffffffffffffffffffffffffff1681526020019081526020016000205490506000811161073c576040517f08c379a0000000000000000000000000000000000000000000000000000000008152600401610733906124ce565b60405180910390fd5b6000600460003373ffffffffffffffffffffffffffffffffffffffff1673ffffffffffffffffffffffffffffffffffffffff1681526020019081526020016000208190555060003373ffffffffffffffffffffffffffffffffffffffff16826040516107a79061251f565b60006040518083038185875af1925050503d80600081146107e4576040519150601f19603f3d011682016040523d82523d6000602084013e6107e9565b606091505b505090508061082d576040517f08c379a000000000000000000000000000000000000000000000000000000000815260040161082490612580565b60405180910390fd5b3373ffffffffffffffffffffffffffffffffffffffff167f016e128b6bdadd9e9068abd0b18db2fc8b27ed3dbced50e4aa6cc0a6934251ab836040516108739190611df9565b60405180910390a25050565b60036020528060005260406000206000915090505481565b6000600460003373ffffffffffffffffffffffffffffffffffffffff1673ffffffffffffffffffffffffffffffffffffffff16815260200190815260200160002054905090565b7f000000000000000000000000000000000000000000000000000000000000000081565b60008054906101000a900473ffffffffffffffffffffffffffffffffffffffff1673ffffffffffffffffffffffffffffffffffffffff163373ffffffffffffffffffffffffffffffffffffffff1614610990576040517f08c379a000000000000000000000000000000000000000000000000000000000815260040161098790612462565b60405180910390fd5b600082828101906109a1919061266f565b90506109f78160e00151868686868080601f016020809104026020016040519081016040528093929190818152602001838380828437600081840152601f19601f82011690508083019250505050505050610e92565b5050505050565b60008054906101000a900473ffffffffffffffffffffffffffffffffffffffff1681565b60026020528060005260406000206000915054906101000a900473ffffffffffffffffffffffffffffffffffffffff1681565b600073ffffffffffffffffffffffffffffffffffffffff16600260003373ffffffffffffffffffffffffffffffffffffffff1673ffffffffffffffffffffffffffffffffffffffff16815260200190815260200160002060009054906101000a900473ffffffffffffffffffffffffffffffffffffffff1673ffffffffffffffffffffffffffffffffffffffff1603610b23576040517f08c379a0000000000000000000000000000000000000000000000000000000008152600401610b1a906126e9565b60405180910390fd5b50505050565b60046020528060005260406000206000915090505481565b600160009054906101000a900473ffffffffffffffffffffffffffffffffffffffff1673ffffffffffffffffffffffffffffffffffffffff163373ffffffffffffffffffffffffffffffffffffffff1614610bd1576040517f08c379a0000000000000000000000000000000000000000000000000000000008152600401610bc89061238a565b60405180910390fd5b610c1484600081518110610be857610be7612709565b5b602002602001015184600081518110610c0457610c03612709565b5b6020026020010151600084610c9e565b50610c98600160009054906101000a900473ffffffffffffffffffffffffffffffffffffffff1684600081518110610c4f57610c4e612709565b5b602002602001015186600081518110610c6b57610c6a612709565b5b602002602001015173ffffffffffffffffffffffffffffffffffffffff16610f899092919063ffffffff16565b50505050565b60008082806020019051810190610cb59190612841565b90506000610cc28261100f565b905060008587610cd2919061289e565b905080821015610d17576040517f08c379a0000000000000000000000000000000000000000000000000000000008152600401610d0e9061291e565b60405180910390fd5b8773ffffffffffffffffffffffffffffffffffffffff1663095ea7b37f0000000000000000000000000000000000000000000000000000000000000000836040518363ffffffff1660e01b8152600401610d7292919061293e565b6020604051808303816000875af1158015610d91573d6000803e3d6000fd5b505050506040513d601f19601f82011682018060405250810190610db59190612993565b5060008183610dc491906129c0565b90506000811115610e1b57610e1a60008054906101000a900473ffffffffffffffffffffffffffffffffffffffff16828b73ffffffffffffffffffffffffffffffffffffffff16610f899092919063ffffffff16565b5b8873ffffffffffffffffffffffffffffffffffffffff168460e001516004811115610e4957610e486129f4565b5b7f851e19f3a8e8f905930f557717071b470b2bec91338f57db514e089eef5c74818a8a604051610e7a929190612a23565b60405180910390a36001945050505050949350505050565b60006004811115610ea657610ea56129f4565b5b846004811115610eb957610eb86129f4565b5b03610ece57610ec9838383611567565b610f83565b60016004811115610ee257610ee16129f4565b5b846004811115610ef557610ef46129f4565b5b03610f0a57610f05838383611600565b610f82565b60026004811115610f1e57610f1d6129f4565b5b846004811115610f3157610f306129f4565b5b03610f4657610f418383836116e5565b610f81565b6040517f08c379a0000000000000000000000000000000000000000000000000000000008152600401610f7890612a98565b60405180910390fd5b5b5b50505050565b61100a8363a9059cbb60e01b8484604051602401610fa892919061293e565b604051602081830303815290604052907bffffffffffffffffffffffffffffffffffffffffffffffffffffffff19166020820180517bffffffffffffffffffffffffffffffffffffffffffffffffffffffff8381831617835250505050611830565b505050565b6000816040015173ffffffffffffffffffffffffffffffffffffffff1663095ea7b3836000015184608001516040518363ffffffff1660e01b815260040161105892919061293e565b6020604051808303816000875af1158015611077573d6000803e3d6000fd5b505050506040513d601f19601f8201168201806040525081019061109b9190612993565b506000600267ffffffffffffffff8111156110b9576110b8611fa0565b5b6040519080825280602002602001820160405280156110e75781602001602082028036833780820191505090505b50905082604001518160008151811061110357611102612709565b5b602002602001019073ffffffffffffffffffffffffffffffffffffffff16908173ffffffffffffffffffffffffffffffffffffffff168152505082606001518160018151811061115657611155612709565b5b602002602001019073ffffffffffffffffffffffffffffffffffffffff16908173ffffffffffffffffffffffffffffffffffffffff16815250506000836000015173ffffffffffffffffffffffffffffffffffffffff166338ed173985608001518660a00151853061012c426111cc919061289e565b6040518663ffffffff1660e01b81526004016111ec959493929190612b76565b6000604051808303816000875af192505050801561122d57506040513d6000823e3d601f19601f8201168201806040525081019061122a9190612c67565b60015b61126c576040517f08c379a000000000000000000000000000000000000000000000000000000000815260040161126390612cfc565b60405180910390fd5b806001825161127b91906129c0565b8151811061128c5761128b612709565b5b6020026020010151915050836060015173ffffffffffffffffffffffffffffffffffffffff1663095ea7b38560200151836040518363ffffffff1660e01b81526004016112da92919061293e565b6020604051808303816000875af11580156112f9573d6000803e3d6000fd5b505050506040513d601f19601f8201168201806040525081019061131d9190612993565b506000600267ffffffffffffffff81111561133b5761133a611fa0565b5b6040519080825280602002602001820160405280156113695781602001602082028036833780820191505090505b50905084606001518160008151811061138557611384612709565b5b602002602001019073ffffffffffffffffffffffffffffffffffffffff16908173ffffffffffffffffffffffffffffffffffffffff16815250508460400151816001815181106113d8576113d7612709565b5b602002602001019073ffffffffffffffffffffffffffffffffffffffff16908173ffffffffffffffffffffffffffffffffffffffff16815250506000856020015173ffffffffffffffffffffffffffffffffffffffff166338ed1739848860c00151853061012c4261144a919061289e565b6040518663ffffffff1660e01b815260040161146a959493929190612b76565b6000604051808303816000875af19250505080156114ab57506040513d6000823e3d601f19601f820116820180604052508101906114a89190612c67565b60015b6114ea576040517f08c379a00000000000000000000000000000000000000000000000000000000081526004016114e190612d68565b60405180910390fd5b80600182516114f991906129c0565b8151811061150a57611509612709565b5b60200260200101519150508560800151811161155b576040517f08c379a000000000000000000000000000000000000000000000000000000000815260040161155290612dd4565b60405180910390fd5b80945050505050919050565b7f000000000000000000000000000000000000000000000000000000000000000073ffffffffffffffffffffffffffffffffffffffff166342b0b77c3085858560006040518663ffffffff1660e01b81526004016115c9959493929190612ebc565b600060405180830381600087803b1580156115e357600080fd5b505af11580156115f7573d6000803e3d6000fd5b50505050505050565b6000600160009054906101000a900473ffffffffffffffffffffffffffffffffffffffff1690506040517f5c19a95c0000000000000000000000000000000000000000000000000000000081523060048201526080602482015260c060448201526101006064820152600160848201528460a4820152600160c48201528360e482015282518061010483015260208401610124830160005b838110156116b3578083015181830152602081019050611698565b50601f19601f84011661012401600080828760008a5af1806116d9573d6000803e3d6000fd5b50505050505050505050565b6000600260008573ffffffffffffffffffffffffffffffffffffffff1673ffffffffffffffffffffffffffffffffffffffff16815260200190815260200160002060009054906101000a900473ffffffffffffffffffffffffffffffffffffffff169050600073ffffffffffffffffffffffffffffffffffffffff168173ffffffffffffffffffffffffffffffffffffffff16036117b8576040517f08c379a00000000000000000000000000000000000000000000000000000000081526004016117af90612f62565b60405180910390fd5b8073ffffffffffffffffffffffffffffffffffffffff1663490e6cbc30856000866040518563ffffffff1660e01b81526004016117f89493929190612fb3565b600060405180830381600087803b15801561181257600080fd5b505af1158015611826573d6000803e3d6000fd5b5050505050505050565b6000611892826040518060400160405280602081526020017f5361666545524332303a206c6f772d6c6576656c2063616c6c206661696c65648152508573ffffffffffffffffffffffffffffffffffffffff166118f89092919063ffffffff16565b90506000815114806118b45750808060200190518101906118b39190612993565b5b6118f3576040517f08c379a00000000000000000000000000000000000000000000000000000000081526004016118ea90613071565b60405180910390fd5b505050565b60606119078484600085611910565b90509392505050565b606082471015611955576040517f08c379a000000000000000000000000000000000000000000000000000000000815260040161194c90613103565b60405180910390fd5b6000808673ffffffffffffffffffffffffffffffffffffffff16858760405161197e9190613154565b60006040518083038185875af1925050503d80600081146119bb576040519150601f19603f3d011682016040523d82523d6000602084013e6119c0565b606091505b50915091506119d1878383876119dd565b92505050949350505050565b60608315611a3f576000835103611a37576119f785611a52565b611a36576040517f08c379a0000000000000000000000000000000000000000000000000000000008152600401611a2d906131b7565b60405180910390fd5b5b829050611a4a565b611a498383611a75565b5b949350505050565b6000808273ffffffffffffffffffffffffffffffffffffffff163b119050919050565b600082511115611a885781518083602001fd5b806040517f08c379a0000000000000000000000000000000000000000000000000000000008152600401611abc919061321b565b60405180910390fd5b600073ffffffffffffffffffffffffffffffffffffffff82169050919050565b6000819050919050565b6000611b0a611b05611b0084611ac5565b611ae5565b611ac5565b9050919050565b6000611b1c82611aef565b9050919050565b6000611b2e82611b11565b9050919050565b611b3e81611b23565b82525050565b6000602082019050611b596000830184611b35565b92915050565b6000611b6a82611b11565b9050919050565b611b7a81611b5f565b82525050565b6000602082019050611b956000830184611b71565b92915050565b6000604051905090565b600080fd5b600080fd5b6000611bba82611ac5565b9050919050565b611bca81611baf565b8114611bd557600080fd5b50565b600081359050611be781611bc1565b92915050565b6000819050919050565b611c0081611bed565b8114611c0b57600080fd5b50565b600081359050611c1d81611bf7565b92915050565b600080fd5b600080fd5b600080fd5b60008083601f840112611c4857611c47611c23565b5b8235905067ffffffffffffffff811115611c6557611c64611c28565b5b602083019150836001820283011115611c8157611c80611c2d565b5b9250929050565b60008060008060008060a08789031215611ca557611ca4611ba5565b5b6000611cb389828a01611bd8565b9650506020611cc489828a01611c0e565b9550506040611cd589828a01611c0e565b9450506060611ce689828a01611bd8565b935050608087013567ffffffffffffffff811115611d0757611d06611baa565b5b611d1389828a01611c32565b92509250509295509295509295565b60008115159050919050565b611d3781611d22565b82525050565b6000602082019050611d526000830184611d2e565b92915050565b60008060408385031215611d6f57611d6e611ba5565b5b6000611d7d85828601611bd8565b9250506020611d8e85828601611bd8565b9150509250929050565b60058110611da557600080fd5b50565b600081359050611db781611d98565b92915050565b600060208284031215611dd357611dd2611ba5565b5b6000611de184828501611da8565b91505092915050565b611df381611bed565b82525050565b6000602082019050611e0e6000830184611dea565b92915050565b6000611e1f82611b11565b9050919050565b611e2f81611e14565b82525050565b6000602082019050611e4a6000830184611e26565b92915050565b60008060008060608587031215611e6a57611e69611ba5565b5b6000611e7887828801611bd8565b9450506020611e8987828801611c0e565b935050604085013567ffffffffffffffff811115611eaa57611ea9611baa565b5b611eb687828801611c32565b925092505092959194509250565b611ecd81611baf565b82525050565b6000602082019050611ee86000830184611ec4565b92915050565b600060208284031215611f0457611f03611ba5565b5b6000611f1284828501611bd8565b91505092915050565b60008060008060608587031215611f3557611f34611ba5565b5b6000611f4387828801611c0e565b9450506020611f5487828801611c0e565b935050604085013567ffffffffffffffff811115611f7557611f74611baa565b5b611f8187828801611c32565b925092505092959194509250565b6000601f19601f8301169050919050565b7f4e487b7100000000000000000000000000000000000000000000000000000000600052604160045260246000fd5b611fd882611f8f565b810181811067ffffffffffffffff82111715611ff757611ff6611fa0565b5b80604052505050565b600061200a611b9b565b90506120168282611fcf565b919050565b600067ffffffffffffffff82111561203657612035611fa0565b5b602082029050602081019050919050565b600061205a6120558461201b565b612000565b9050808382526020820190506020840283018581111561207d5761207c611c2d565b5b835b818110156120a657806120928882611bd8565b84526020840193505060208101905061207f565b5050509392505050565b600082601f8301126120c5576120c4611c23565b5b81356120d5848260208601612047565b91505092915050565b600067ffffffffffffffff8211156120f9576120f8611fa0565b5b602082029050602081019050919050565b600061211d612118846120de565b612000565b905080838252602082019050602084028301858111156121405761213f611c2d565b5b835b8181101561216957806121558882611c0e565b845260208401935050602081019050612142565b5050509392505050565b600082601f83011261218857612187611c23565b5b813561219884826020860161210a565b91505092915050565b600080fd5b600067ffffffffffffffff8211156121c1576121c0611fa0565b5b6121ca82611f8f565b9050602081019050919050565b82818337600083830152505050565b60006121f96121f4846121a6565b612000565b905082815260208101848484011115612215576122146121a1565b5b6122208482856121d7565b509392505050565b600082601f83011261223d5761223c611c23565b5b813561224d8482602086016121e6565b91505092915050565b600080600080608085870312156122705761226f611ba5565b5b600085013567ffffffffffffffff81111561228e5761228d611baa565b5b61229a878288016120b0565b945050602085013567ffffffffffffffff8111156122bb576122ba611baa565b5b6122c787828801612173565b935050604085013567ffffffffffffffff8111156122e8576122e7611baa565b5b6122f487828801612173565b925050606085013567ffffffffffffffff81111561231557612314611baa565b5b61232187828801612228565b91505092959194509250565b600082825260208201905092915050565b7f496e76616c69642063616c6c6572000000000000000000000000000000000000600082015250565b6000612374600e8361232d565b915061237f8261233e565b602082019050919050565b600060208201905081810360008301526123a381612367565b9050919050565b7f496e76616c696420696e69746961746f72000000000000000000000000000000600082015250565b60006123e060118361232d565b91506123eb826123aa565b602082019050919050565b6000602082019050818103600083015261240f816123d3565b9050919050565b7f4e6f7420617574686f72697a6564000000000000000000000000000000000000600082015250565b600061244c600e8361232d565b915061245782612416565b602082019050919050565b6000602082019050818103600083015261247b8161243f565b9050919050565b7f4e6f2070726f6669747320746f20776974686472617700000000000000000000600082015250565b60006124b860168361232d565b91506124c382612482565b602082019050919050565b600060208201905081810360008301526124e7816124ab565b9050919050565b600081905092915050565b50565b60006125096000836124ee565b9150612514826124f9565b600082019050919050565b600061252a826124fc565b9150819050919050565b7f5769746864726177616c206661696c6564000000000000000000000000000000600082015250565b600061256a60118361232d565b915061257582612534565b602082019050919050565b600060208201905081810360008301526125998161255d565b9050919050565b600080fd5b600061010082840312156125bc576125bb6125a0565b5b6125c7610100612000565b905060006125d784828501611bd8565b60008301525060206125eb84828501611bd8565b60208301525060406125ff84828501611bd8565b604083015250606061261384828501611bd8565b606083015250608061262784828501611c0e565b60808301525060a061263b84828501611c0e565b60a08301525060c061264f84828501611c0e565b60c08301525060e061266384828501611da8565b60e08301525092915050565b6000610100828403121561268657612685611ba5565b5b6000612694848285016125a5565b91505092915050565b7f496e76616c696420706f6f6c0000000000000000000000000000000000000000600082015250565b60006126d3600c8361232d565b91506126de8261269d565b602082019050919050565b60006020820190508181036000830152612702816126c6565b9050919050565b7f4e487b7100000000000000000000000000000000000000000000000000000000600052603260045260246000fd5b60008151905061274781611bc1565b92915050565b60008151905061275c81611bf7565b92915050565b60008151905061277181611d98565b92915050565b6000610100828403121561278e5761278d6125a0565b5b612799610100612000565b905060006127a984828501612738565b60008301525060206127bd84828501612738565b60208301525060406127d184828501612738565b60408301525060606127e584828501612738565b60608301525060806127f98482850161274d565b60808301525060a061280d8482850161274d565b60a08301525060c06128218482850161274d565b60c08301525060e061283584828501612762565b60e08301525092915050565b6000610100828403121561285857612857611ba5565b5b600061286684828501612777565b91505092915050565b7f4e487b7100000000000000000000000000000000000000000000000000000000600052601160045260246000fd5b60006128a982611bed565b91506128b483611bed565b92508282019050808211156128cc576128cb61286f565b5b92915050565b7f556e70726f66697461626c652074726164650000000000000000000000000000600082015250565b600061290860128361232d565b9150612913826128d2565b602082019050919050565b60006020820190508181036000830152612937816128fb565b9050919050565b60006040820190506129536000830185611ec4565b6129606020830184611dea565b9392505050565b61297081611d22565b811461297b57600080fd5b50565b60008151905061298d81612967565b92915050565b6000602082840312156129a9576129a8611ba5565b5b60006129b78482850161297e565b91505092915050565b60006129cb82611bed565b91506129d683611bed565b92508282039050818111156129ee576129ed61286f565b5b92915050565b7f4e487b7100000000000000000000000000000000000000000000000000000000600052602160045260246000fd5b6000604082019050612a386000830185611dea565b612a456020830184611dea565b9392505050565b7f50726f7669646572206e6f7420737570706f7274656400000000000000000000600082015250565b6000612a8260168361232d565b9150612a8d82612a4c565b602082019050919050565b60006020820190508181036000830152612ab181612a75565b9050919050565b600081519050919050565b600082825260208201905092915050565b6000819050602082019050919050565b612aed81611baf565b82525050565b6000612aff8383612ae4565b60208301905092915050565b6000602082019050919050565b6000612b2382612ab8565b612b2d8185612ac3565b9350612b3883612ad4565b8060005b83811015612b69578151612b508882612af3565b9750612b5b83612b0b565b925050600181019050612b3c565b5085935050505092915050565b600060a082019050612b8b6000830188611dea565b612b986020830187611dea565b8181036040830152612baa8186612b18565b9050612bb96060830185611ec4565b612bc66080830184611dea565b9695505050505050565b6000612be3612bde846120de565b612000565b90508083825260208201905060208402830185811115612c0657612c05611c2d565b5b835b81811015612c2f5780612c1b888261274d565b845260208401935050602081019050612c08565b5050509392505050565b600082601f830112612c4e57612c4d611c23565b5b8151612c5e848260208601612bd0565b91505092915050565b600060208284031215612c7d57612c7c611ba5565b5b600082015167ffffffffffffffff811115612c9b57612c9a611baa565b5b612ca784828501612c39565b91505092915050565b7f46697273742073776170206661696c6564000000000000000000000000000000600082015250565b6000612ce660118361232d565b9150612cf182612cb0565b602082019050919050565b60006020820190508181036000830152612d1581612cd9565b9050919050565b7f5365636f6e642073776170206661696c65640000000000000000000000000000600082015250565b6000612d5260128361232d565b9150612d5d82612d1c565b602082019050919050565b60006020820190508181036000830152612d8181612d45565b9050919050565b7f5472616465206e6f742070726f66697461626c65000000000000000000000000600082015250565b6000612dbe60148361232d565b9150612dc982612d88565b602082019050919050565b60006020820190508181036000830152612ded81612db1565b9050919050565b600081519050919050565b600082825260208201905092915050565b60005b83811015612e2e578082015181840152602081019050612e13565b60008484015250505050565b6000612e4582612df4565b612e4f8185612dff565b9350612e5f818560208601612e10565b612e6881611f8f565b840191505092915050565b6000819050919050565b600061ffff82169050919050565b6000612ea6612ea1612e9c84612e73565b611ae5565b612e7d565b9050919050565b612eb681612e8b565b82525050565b600060a082019050612ed16000830188611ec4565b612ede6020830187611ec4565b612eeb6040830186611dea565b8181036060830152612efd8185612e3a565b9050612f0c6080830184612ead565b9695505050505050565b7f506f6f6c206e6f7420636f6e6669677572656400000000000000000000000000600082015250565b6000612f4c60138361232d565b9150612f5782612f16565b602082019050919050565b60006020820190508181036000830152612f7b81612f3f565b9050919050565b6000612f9d612f98612f9384612e73565b611ae5565b611bed565b9050919050565b612fad81612f82565b82525050565b6000608082019050612fc86000830187611ec4565b612fd56020830186611dea565b612fe26040830185612fa4565b8181036060830152612ff48184612e3a565b905095945050505050565b7f5361666545524332303a204552433230206f7065726174696f6e20646964206e60008201527f6f74207375636365656400000000000000000000000000000000000000000000602082015250565b600061305b602a8361232d565b915061306682612fff565b604082019050919050565b6000602082019050818103600083015261308a8161304e565b9050919050565b7f416464726573733a20696e73756666696369656e742062616c616e636520666f60008201527f722063616c6c0000000000000000000000000000000000000000000000000000602082015250565b60006130ed60268361232d565b91506130f882613091565b604082019050919050565b6000602082019050818103600083015261311c816130e0565b9050919050565b600061312e82612df4565b61313881856124ee565b9350613148818560208601612e10565b80840191505092915050565b60006131608284613123565b915081905092915050565b7f416464726573733a2063616c6c20746f206e6f6e2d636f6e7472616374000000600082015250565b60006131a1601d8361232d565b91506131ac8261316b565b602082019050919050565b600060208201905081810360008301526131d081613194565b9050919050565b600081519050919050565b60006131ed826131d7565b6131f7818561232d565b9350613207818560208601612e10565b61321081611f8f565b840191505092915050565b6000602082019050818103600083015261323581846131e2565b90509291505056fea26469706673582212200f99bc40648e4a2101c26a9b761a35571097ff0479c62868e3a7ee1dee33541364736f6c63430008130033",
  "linkReferences": {},
  "deployedLinkReferences": {}
}