{
  "_format": "hh-sol-artifact-1",
  "contractName": "ApexDEXRouter",
  "sourceName": "core-logic/contracts/ApexDEXRouter.sol",
  "abi": [
    {
      "inputs": [],
      "stateMutability": "nonpayable",
      "type": "constructor"
    },
    {
      "anonymous": false,
      "inputs": [
        {
          "indexed": true,
          "internalType": "address",
          "name": "dex",
          "type": "address"
        },
        {
          "indexed": true,
          "internalType": "address",
          "name": "tokenIn",
          "type": "address"
        },
        {
          "indexed": true,
          "internalType": "address",
          "name": "tokenOut",
          "type": "address"
        },
        {
          "indexed": false,
          "internalType": "uint256",
          "name": "amountIn",
          "type": "uint256"
        },
        {
          "indexed": false,
          "internalType": "uint256",
          "name": "amountOut",
          "type": "uint256"
        }
      ],
      "name": "SwapExecuted",
      "type": "event"
    },
    {
      "inputs": [],
      "name": "SUSHISWAP_ROUTER",
      "outputs": [
        {
          "internalType": "address",
          "name": "",
          "type": "address"
        }
      ],
      "stateMutability": "view",
      "type": "function"
    },
    {
      "inputs": [],
      "name": "UNISWAP_V2_ROUTER",
      "outputs": [
        {
          "internalType": "address",
          "name": "",
          "type": "address"
        }
      ],
      "stateMutability": "view",
      "type": "function"
    },
    {
      "inputs": [],
      "name": "UNISWAP_V3_ROUTER",
      "outputs": [
        {
          "internalType": "address",
          "name": "",
          "type": "address"
        }
      ],
      "stateMutability": "view",
      "type": "function"
    },
    {
      "inputs": [
        {
          "internalType": "address",
          "name": "token",
          "type": "address"
        },
        {
          "internalType": "uint256",
          "name": "amount",
          "type": "uint256"
        }
      ],
      "name": "emergencyWithdraw",
      "outputs": [],
      "stateMutability": "nonpayable",
      "type": "function"
    },
    {
      "inputs": [],
      "name": "owner",
      "outputs": [
        {
          "internalType": "address",
          "name": "",
          "type": "address"
        }
      ],
      "stateMutability": "view",
      "type": "function"
    },
    {
      "inputs": [
        {
          "internalType": "address",
          "name": "dexRouter",
          "type": "address"
        },
        {
          "internalType": "address",
          "name": "tokenIn",
          "type": "address"
        },
        {
          "internalType": "address",
          "name": "tokenOut",
          "type": "address"
        },
        {
          "internalType": "uint256",
          "name": "amountIn",
          "type": "uint256"
        },
        {
          "internalType": "uint256",
          "name": "minAmountOut",
          "type": "uint256"
        },
        {
          "internalType": "address",
          "name": "recipient",
          "type": "address"
        }
      ],
      "name": "swapExactInput",
      "outputs": [
        {
          "internalType": "uint256",
          "name": "amountOut",
          "type": "uint256"
        }
      ],
      "stateMutability": "nonpayable",
      "type": "function"
    }
  ],
  "bytecode": "0x608060405234801561001057600080fd5b50336000806101000a81548173ffffffffffffffffffffffffffffffffffffffff021916908373ffffffffffffffffffffffffffffffffffffffff160217905550611a1f806100606000396000f3fe608060405234801561001057600080fd5b50600436106100625760003560e01c8063277754ed1461006757806341c64a2f146100855780638da5cb5b146100a357806395ccea67146100c1578063a82ed9ec146100dd578063e61abd98146100fb575b600080fd5b61006f61012b565b60405161007c9190610eeb565b60405180910390f35b61008d610143565b60405161009a9190610eeb565b60405180910390f35b6100ab61015b565b6040516100b89190610eeb565b60405180910390f35b6100db60048036038101906100d69190610f7c565b61017f565b005b6100e561025c565b6040516100f29190610eeb565b60405180910390f35b61011560048036038101906101109190610fbc565b610274565b6040516101229190611058565b60405180910390f35b73d9e1ce17f2641f24ae83637ab66a2cca9c378b9f81565b73e592427a0aece92de3edee1f18e0157c0586156481565b60008054906101000a900473ffffffffffffffffffffffffffffffffffffffff1681565b60008054906101000a900473ffffffffffffffffffffffffffffffffffffffff1673ffffffffffffffffffffffffffffffffffffffff163373ffffffffffffffffffffffffffffffffffffffff161461020d576040517f08c379a0000000000000000000000000000000000000000000000000000000008152600401610204906110d0565b60405180910390fd5b61025860008054906101000a900473ffffffffffffffffffffffffffffffffffffffff16828473ffffffffffffffffffffffffffffffffffffffff166105769092919063ffffffff16565b5050565b737a250d5630b4cf539739df2c5dacb4c659f2488d81565b60008060009054906101000a900473ffffffffffffffffffffffffffffffffffffffff1673ffffffffffffffffffffffffffffffffffffffff163373ffffffffffffffffffffffffffffffffffffffff1614610305576040517f08c379a00000000000000000000000000000000000000000000000000000000081526004016102fc906110d0565b60405180910390fd5b6103323330868973ffffffffffffffffffffffffffffffffffffffff166105fc909392919063ffffffff16565b61035d87858873ffffffffffffffffffffffffffffffffffffffff166106859092919063ffffffff16565b737a250d5630b4cf539739df2c5dacb4c659f2488d73ffffffffffffffffffffffffffffffffffffffff168773ffffffffffffffffffffffffffffffffffffffff16036103b8576103b186868686866107d4565b90506104ab565b73e592427a0aece92de3edee1f18e0157c0586156473ffffffffffffffffffffffffffffffffffffffff168773ffffffffffffffffffffffffffffffffffffffff16036104135761040c86868686866109d6565b90506104aa565b73d9e1ce17f2641f24ae83637ab66a2cca9c378b9f73ffffffffffffffffffffffffffffffffffffffff168773ffffffffffffffffffffffffffffffffffffffff160361046e576104678686868686610a13565b90506104a9565b6040517f08c379a00000000000000000000000000000000000000000000000000000000081526004016104a09061113c565b60405180910390fd5b5b5b828110156104ee576040517f08c379a00000000000000000000000000000000000000000000000000000000081526004016104e5906111a8565b60405180910390fd5b8473ffffffffffffffffffffffffffffffffffffffff168673ffffffffffffffffffffffffffffffffffffffff168873ffffffffffffffffffffffffffffffffffffffff167f764f0dc063c06f32d89a3f3af80c0db4be8a090901f589a478b447e0a51f09f187856040516105649291906111c8565b60405180910390a49695505050505050565b6105f78363a9059cbb60e01b84846040516024016105959291906111f1565b604051602081830303815290604052907bffffffffffffffffffffffffffffffffffffffffffffffffffffffff19166020820180517bffffffffffffffffffffffffffffffffffffffffffffffffffffffff8381831617835250505050610c15565b505050565b61067f846323b872dd60e01b85858560405160240161061d9392919061121a565b604051602081830303815290604052907bffffffffffffffffffffffffffffffffffffffffffffffffffffffff19166020820180517bffffffffffffffffffffffffffffffffffffffffffffffffffffffff8381831617835250505050610c15565b50505050565b600081148061070f575060008373ffffffffffffffffffffffffffffffffffffffff1663dd62ed3e30856040518363ffffffff1660e01b81526004016106cc929190611251565b602060405180830381865afa1580156106e9573d6000803e3d6000fd5b505050506040513d601f19601f8201168201806040525081019061070d919061128f565b145b61074e576040517f08c379a00000000000000000000000000000000000000000000000000000000081526004016107459061132e565b60405180910390fd5b6107cf8363095ea7b360e01b848460405160240161076d9291906111f1565b604051602081830303815290604052907bffffffffffffffffffffffffffffffffffffffffffffffffffffffff19166020820180517bffffffffffffffffffffffffffffffffffffffffffffffffffffffff8381831617835250505050610c15565b505050565b600080600267ffffffffffffffff8111156107f2576107f161134e565b5b6040519080825280602002602001820160405280156108205781602001602082028036833780820191505090505b50905086816000815181106108385761083761137d565b5b602002602001019073ffffffffffffffffffffffffffffffffffffffff16908173ffffffffffffffffffffffffffffffffffffffff168152505085816001815181106108875761088661137d565b5b602002602001019073ffffffffffffffffffffffffffffffffffffffff16908173ffffffffffffffffffffffffffffffffffffffff1681525050610900737a250d5630b4cf539739df2c5dacb4c659f2488d868973ffffffffffffffffffffffffffffffffffffffff166106859092919063ffffffff16565b6000737a250d5630b4cf539739df2c5dacb4c659f2488d73ffffffffffffffffffffffffffffffffffffffff166338ed173987878588426040518663ffffffff1660e01b815260040161095795949392919061146a565b6000604051808303816000875af1158015610976573d6000803e3d6000fd5b505050506040513d6000823e3d601f19601f8201168201806040525081019061099f91906115ee565b905080600182516109b09190611666565b815181106109c1576109c061137d565b5b60200260200101519250505095945050505050565b60006040517f08c379a0000000000000000000000000000000000000000000000000000000008152600401610a0a906116e6565b60405180910390fd5b600080600267ffffffffffffffff811115610a3157610a3061134e565b5b604051908082528060200260200182016040528015610a5f5781602001602082028036833780820191505090505b5090508681600081518110610a7757610a7661137d565b5b602002602001019073ffffffffffffffffffffffffffffffffffffffff16908173ffffffffffffffffffffffffffffffffffffffff16815250508581600181518110610ac657610ac561137d565b5b602002602001019073ffffffffffffffffffffffffffffffffffffffff16908173ffffffffffffffffffffffffffffffffffffffff1681525050610b3f73d9e1ce17f2641f24ae83637ab66a2cca9c378b9f868973ffffffffffffffffffffffffffffffffffffffff166106859092919063ffffffff16565b600073d9e1ce17f2641f24ae83637ab66a2cca9c378b9f73ffffffffffffffffffffffffffffffffffffffff166338ed173987878588426040518663ffffffff1660e01b8152600401610b9695949392919061146a565b6000604051808303816000875af1158015610bb5573d6000803e3d6000fd5b505050506040513d6000823e3d601f19601f82011682018060405250810190610bde91906115ee565b90508060018251610bef9190611666565b81518110610c0057610bff61137d565b5b60200260200101519250505095945050505050565b6000610c77826040518060400160405280602081526020017f5361666545524332303a206c6f772d6c6576656c2063616c6c206661696c65648152508573ffffffffffffffffffffffffffffffffffffffff16610cdd9092919063ffffffff16565b9050600081511480610c99575080806020019051810190610c98919061173e565b5b610cd8576040517f08c379a0000000000000000000000000000000000000000000000000000000008152600401610ccf906117dd565b60405180910390fd5b505050565b6060610cec8484600085610cf5565b90509392505050565b606082471015610d3a576040517f08c379a0000000000000000000000000000000000000000000000000000000008152600401610d319061186f565b60405180910390fd5b6000808673ffffffffffffffffffffffffffffffffffffffff168587604051610d639190611900565b60006040518083038185875af1925050503d8060008114610da0576040519150601f19603f3d011682016040523d82523d6000602084013e610da5565b606091505b5091509150610db687838387610dc2565b92505050949350505050565b60608315610e24576000835103610e1c57610ddc85610e37565b610e1b576040517f08c379a0000000000000000000000000000000000000000000000000000000008152600401610e1290611963565b60405180910390fd5b5b829050610e2f565b610e2e8383610e5a565b5b949350505050565b6000808273ffffffffffffffffffffffffffffffffffffffff163b119050919050565b600082511115610e6d5781518083602001fd5b806040517f08c379a0000000000000000000000000000000000000000000000000000000008152600401610ea191906119c7565b60405180910390fd5b600073ffffffffffffffffffffffffffffffffffffffff82169050919050565b6000610ed582610eaa565b9050919050565b610ee581610eca565b82525050565b6000602082019050610f006000830184610edc565b92915050565b6000604051905090565b600080fd5b600080fd5b610f2381610eca565b8114610f2e57600080fd5b50565b600081359050610f4081610f1a565b92915050565b6000819050919050565b610f5981610f46565b8114610f6457600080fd5b50565b600081359050610f7681610f50565b92915050565b60008060408385031215610f9357610f92610f10565b5b6000610fa185828601610f31565b9250506020610fb285828601610f67565b9150509250929050565b60008060008060008060c08789031215610fd957610fd8610f10565b5b6000610fe789828a01610f31565b9650506020610ff889828a01610f31565b955050604061100989828a01610f31565b945050606061101a89828a01610f67565b935050608061102b89828a01610f67565b92505060a061103c89828a01610f31565b9150509295509295509295565b61105281610f46565b82525050565b600060208201905061106d6000830184611049565b92915050565b600082825260208201905092915050565b7f4e6f7420617574686f72697a6564000000000000000000000000000000000000600082015250565b60006110ba600e83611073565b91506110c582611084565b602082019050919050565b600060208201905081810360008301526110e9816110ad565b9050919050565b7f556e737570706f72746564204445580000000000000000000000000000000000600082015250565b6000611126600f83611073565b9150611131826110f0565b602082019050919050565b6000602082019050818103600083015261115581611119565b9050919050565b7f496e73756666696369656e74206f757470757400000000000000000000000000600082015250565b6000611192601383611073565b915061119d8261115c565b602082019050919050565b600060208201905081810360008301526111c181611185565b9050919050565b60006040820190506111dd6000830185611049565b6111ea6020830184611049565b9392505050565b60006040820190506112066000830185610edc565b6112136020830184611049565b9392505050565b600060608201905061122f6000830186610edc565b61123c6020830185610edc565b6112496040830184611049565b949350505050565b60006040820190506112666000830185610edc565b6112736020830184610edc565b9392505050565b60008151905061128981610f50565b92915050565b6000602082840312156112a5576112a4610f10565b5b60006112b38482850161127a565b91505092915050565b7f5361666545524332303a20617070726f76652066726f6d206e6f6e2d7a65726f60008201527f20746f206e6f6e2d7a65726f20616c6c6f77616e636500000000000000000000602082015250565b6000611318603683611073565b9150611323826112bc565b604082019050919050565b600060208201905081810360008301526113478161130b565b9050919050565b7f4e487b7100000000000000000000000000000000000000000000000000000000600052604160045260246000fd5b7f4e487b7100000000000000000000000000000000000000000000000000000000600052603260045260246000fd5b600081519050919050565b600082825260208201905092915050565b6000819050602082019050919050565b6113e181610eca565b82525050565b60006113f383836113d8565b60208301905092915050565b6000602082019050919050565b6000611417826113ac565b61142181856113b7565b935061142c836113c8565b8060005b8381101561145d57815161144488826113e7565b975061144f836113ff565b925050600181019050611430565b5085935050505092915050565b600060a08201905061147f6000830188611049565b61148c6020830187611049565b818103604083015261149e818661140c565b90506114ad6060830185610edc565b6114ba6080830184611049565b9695505050505050565b600080fd5b6000601f19601f8301169050919050565b6114e3826114c9565b810181811067ffffffffffffffff821117156115025761150161134e565b5b80604052505050565b6000611515610f06565b905061152182826114da565b919050565b600067ffffffffffffffff8211156115415761154061134e565b5b602082029050602081019050919050565b600080fd5b600061156a61156584611526565b61150b565b9050808382526020820190506020840283018581111561158d5761158c611552565b5b835b818110156115b657806115a2888261127a565b84526020840193505060208101905061158f565b5050509392505050565b600082601f8301126115d5576115d46114c4565b5b81516115e5848260208601611557565b91505092915050565b60006020828403121561160457611603610f10565b5b600082015167ffffffffffffffff81111561162257611621610f15565b5b61162e848285016115c0565b91505092915050565b7f4e487b7100000000000000000000000000000000000000000000000000000000600052601160045260246000fd5b600061167182610f46565b915061167c83610f46565b925082820390508181111561169457611693611637565b5b92915050565b7f556e6973776170205633206e6f742079657420696d706c656d656e7465640000600082015250565b60006116d0601e83611073565b91506116db8261169a565b602082019050919050565b600060208201905081810360008301526116ff816116c3565b9050919050565b60008115159050919050565b61171b81611706565b811461172657600080fd5b50565b60008151905061173881611712565b92915050565b60006020828403121561175457611753610f10565b5b600061176284828501611729565b91505092915050565b7f5361666545524332303a204552433230206f7065726174696f6e20646964206e60008201527f6f74207375636365656400000000000000000000000000000000000000000000602082015250565b60006117c7602a83611073565b91506117d28261176b565b604082019050919050565b600060208201905081810360008301526117f6816117ba565b9050919050565b7f416464726573733a20696e73756666696369656e742062616c616e636520666f60008201527f722063616c6c0000000000000000000000000000000000000000000000000000602082015250565b6000611859602683611073565b9150611864826117fd565b604082019050919050565b600060208201905081810360008301526118888161184c565b9050919050565b600081519050919050565b600081905092915050565b60005b838110156118c35780820151818401526020810190506118a8565b60008484015250505050565b60006118da8261188f565b6118e4818561189a565b93506118f48185602086016118a5565b80840191505092915050565b600061190c82846118cf565b915081905092915050565b7f416464726573733a2063616c6c20746f206e6f6e2d636f6e7472616374000000600082015250565b600061194d601d83611073565b915061195882611917565b602082019050919050565b6000602082019050818103600083015261197c81611940565b9050919050565b600081519050919050565b600061199982611983565b6119a38185611073565b93506119b38185602086016118a5565b6119bc816114c9565b840191505092915050565b600060208201905081810360008301526119e1818461198e565b90509291505056fea2646970667358221220e5c7977bc6ad89ceeb495069fa51446af9d96902bc896e427945e4fbf471250f64736f6c63430008130033",
  "linkReferences": {},
  "deployedLinkReferences": {}
}